:100000000C949F000C94B1200C94C7000C94C70072
:100010000C94C7000C94C7000C94C7000C94852066
:100020000C94C7000C94C7000C94C7000C94C70034
:100030000C94C7000C94C7000C94C7000C94C70024
:100040000C943B200C94C7000C9409200C94E31FE3
:100050000C94C7000C94C7000C94C7000C94C70004
:100060000C94C7000C94C70007634236B79BD8A70F
:100070001A39685618AEBAAB558C1D3CB7CC5763CD
:10008000BD6DEDFD753EF6177231BF000000803F7B
:1000900008000000BE922449123EABAAAA2ABECD97
:1000A000CCCC4C3E00000080BEABAAAAAA3E000009
:1000B0000000BF000000803F000000000008417801
:1000C000D3BB4387D1133D190E3CC3BD4282AD2B38
:1000D0003E68EC8276BED98FE1A93E4C80EFFFBE30
:1000E00001C4FF7F3F00000000000000000024006A
:1000F00027002A0000000000250028002B0004042F
:1001000004040404040402020202020203030303BF
:10011000030301020408102040800102040810209B
:100120000102040810200000000800020100000382
:1001300004070000000000000000DC2081271124DB
:100140001FBECFEFD8E0DEBFCDBF12E0A0E0B1E030
:10015000E8ECF9E502C005900D92A438B107D9F793
:1001600025E0A4E8B2E001C01D92A33CB207E1F78C
:1001700010E0CEE9D0E004C02197FE010E94AC2B34
:10018000CD39D107C9F70E940B220C94D72C0C94BF
:100190000000AF92BF92CF92DF92EF92FF920F9347
:1001A0001F93CF93DF936C017B018B01040F151F0D
:1001B000EB015E01AE18BF08C017D10759F0699175
:1001C000D601ED91FC910190F081E02DC6010995D9
:1001D000892B79F7C501DF91CF911F910F91FF9086
:1001E000EF90DF90CF90BF90AF900895FC01538DBA
:1001F000448D252F30E0842F90E0821B930B541701
:1002000010F0CF96089501970895FC01918D828D8D
:10021000981761F0A28DAE0FBF2FB11D5D968C9126
:10022000928D9F5F9F73928F90E008958FEF9FEF65
:100230000895FC01918D828D981731F0828DE80F21
:10024000F11D858D90E008958FEF9FEF0895FC01DB
:10025000918D228D892F90E0805C9F4F821B9109A8
:100260008F739927089583ED94E00E94270121E080
:10027000892B09F420E0822F089580E090E0892BFB
:1002800029F00E94330181110C9400000895FC01B3
:10029000A48DA80FB92FB11DA35ABF4F2C91848DE7
:1002A00090E001968F739927848FA689B7892C9344
:1002B000A089B1898C91837080648C93938D848D97
:1002C000981306C00288F389E02D80818F7D80839A
:1002D0000895EF92FF920F931F93CF93DF93EC015A
:1002E00081E0888F9B8D8C8D98131AC0E889F989DD
:1002F000808185FF15C09FB7F894EE89FF896083E0
:10030000E889F98980818370806480839FBF81E060
:1003100090E0DF91CF911F910F91FF90EF900895A2
:10032000F62E0B8D10E00F5F1F4F0F731127E02E7D
:100330008C8D8E110CC00FB607FCFACFE889F989B5
:10034000808185FFF5CFCE010E944701F1CFEB8D73
:10035000EC0FFD2FF11DE35AFF4FF0829FB7F89489
:100360000B8FEA89FB898081806280839FBFCFCF1A
:10037000CF93DF93EC01888D8823B9F0AA89BB89DC
:10038000E889F9898C9185FD03C0808186FD0DC0C7
:100390000FB607FCF7CF8C9185FFF2CF808185FFE8
:1003A000EDCFCE010E944701E9CFDF91CF910895B3
:1003B00090E0FC01EA5DFE4F2491FC01EE5EFE4FF1
:1003C000349182509F4FFC0184918823A1F0211128
:1003D00018C0E82FF0E0EE0FFF1FEC50FF4FA59183
:1003E000B4918FB7F894611107C09C91E32FE09509
:1003F000E923EC938FBF0895EC91E32BEC938FBF2F
:10040000FACF233029F160F02730E1F02830A1F055
:100410002430F9F6909180009F7D90938000D9CF91
:10042000213031F02230A9F694B59F7D94BDD1CF13
:1004300094B59F7794BDCDCF9091B0009F7D909360
:10044000B000C7CF9091B0009F779093B000C1CF1C
:10045000909180009F7790938000BBCFCF93DF93E4
:1004600090E0FC01EE5EFE4F249182509F4FFC0114
:1004700084918823A9F090E0880F991FFC01E65130
:10048000FF4FA591B491FC01EC50FF4FC591D49161
:10049000662349F08FB7F894EC91E22BEC938FBF71
:1004A000DF91CF9108959FB7F8948C91E22FE0955A
:1004B0008E238C932881E223E8839FBFF1CF789429
:1004C00084B5826084BD84B5816084BD85B5826059
:1004D00085BD85B5816085BDEEE6F0E080818160F7
:1004E0008083E1E8F0E010828081826080838081F7
:1004F00081608083E0E8F0E0808181608083E1EBCF
:10050000F0E0808184608083E0EBF0E080818160B6
:100510008083EAE7F0E0808184608083808182606C
:100520008083808181608083808180688083109255
:10053000C100089508952091BF0230E0F901EB5306
:10054000FC4F80812D533D4FF901208190E095951E
:10055000879595958795F0E42F9F90011124822B24
:10056000932B969587958F779927892B79F41092FD
:100570009F0280E090E0A0E8BFE38093A002909308
:10058000A102A093A202B093A302089581E08093F8
:100590009F02EFCF2091BF0230E0F901EB53FC4FF7
:1005A00080812D533D4FF901208190E095958795ED
:1005B00095958795F0E42F9F90011124822B932B22
:1005C000969587958F779927892B79F41092A402B5
:1005D00080E090E0A0E8BFE38093A5029093A6029C
:1005E000A093A702B093A802089581E08093A4028B
:1005F000EFCF2091BF0230E0F901EB53FC4F808137
:100600002D533D4FF901208190E095958795959563
:100610008795F0E42F9F90011124822B932B9695C0
:1006200087958F779927892B79F41092A90280E01A
:1006300090E0A0E8BFE38093AA029093AB02A0935E
:10064000AC02B093AD02089581E08093A902EFCF90
:100650002091BF0230E0F901EB53FC4F80812D5314
:100660003D4FF901208190E0959587959595879567
:10067000F0E42F9F90011124822B932B9695879560
:100680008F779927892B79F41092AE0280E090E061
:10069000A0E8BFE38093AF029093B002A093B102B1
:1006A000B093B202089581E08093AE02EFCF109232
:1006B000BA021092B90280E090E0A0E8BFE3809314
:1006C000AF029093B002A093B102B093B2028093B4
:1006D000AA029093AB02A093AC02B093AD028093B8
:1006E000A5029093A602A093A702B093A8028093BC
:1006F000A0029093A102A093A202B093A302089536
:1007000081E08093BA022091B3029091B60229173A
:1007100018F01092B90208958093B90208952091BB
:10072000BF0230E0F901EB53FC4F80812D533D4F68
:10073000F901208190E09595879595958795F0E44E
:100740002F9F90011124822B932B969587958F775D
:100750009927892B09F445C01092BA021092B90268
:1007600080918D0590918E05A0918F05B091900597
:1007700080939B0290939C02A0939D02B0939E0253
:100780008091910590919205A0919305B091940567
:100790008093970290939802A0939902B0939A0243
:1007A0008091950590919605A0919705B091980537
:1007B0008093930290939402A0939502B093960233
:1007C0008091890590918A05A0918B05B0918C0547
:1007D00080938F0290939002A0939102B093920223
:1007E000089580919B0290919C02A0919D02B091EE
:1007F0009E0280938D0590938E05A0938F05B093F4
:1008000090058091970290919802A0919902B091E1
:100810009A028093910590939205A0939305B093CB
:1008200094058091930290919402A0919502B091C9
:1008300096028093950590939605A0939705B093A3
:10084000980580918F0290919002A0919102B091B1
:1008500092028093890590938A05A0938B05B093AB
:100860008C050C9480032091BF0230E0F901EB531A
:10087000FC4F80812D533D4FF901208190E09595EB
:10088000879595958795F0E42F9F90011124822BF1
:10089000932B969587958F7799278093A90508952F
:1008A0002091BF0230E0F901EB53FC4F80812D53C2
:1008B0003D4FF901208190E0959587959595879515
:1008C000F0E42F9F90011124822B932B959587950F
:1008D0008F779927009719F4109284050895813035
:1008E000910521F481E0809384050895823091057B
:1008F00021F482E08093840508958330910521F4EA
:1009000083E0809384050895049719F484E080932C
:10091000840508958091BF0290E0FC01EB53FC4FE9
:1009200060818D539D4FFC01808170E075956795C6
:1009300075956795F0E48F9FC0011124682B792B82
:10094000759567956F777727072E000C880B990BA5
:100950000E94CA2820E030E040E251E40E947F2952
:1009600020E030E040EA50E40E94AF276093890520
:1009700070938A0580938B0590938C05089510924F
:100980008E0281E792E09093D2048093D10410927A
:10099000B30284E08093B6021092B5021092B402C2
:1009A0001092AE021092A9021092A40210929F021D
:1009B00080E090E0A0E8BFE38093AF029093B002A4
:1009C000A093B102B093B2028093AA029093AB02BB
:1009D000A093AC02B093AD028093A5029093A602BF
:1009E000A093A702B093A8028093A0029093A102C3
:1009F000A093A202B093A302E0E7F5E082AF93AF29
:100A0000A4AFB5AF1092AE051092AF051092B0052D
:100A10001092B1054AE057ED63E27CE34093B205E2
:100A20005093B3056093B4057093B5058093B605F4
:100A30009093B705A093B805B093B90581E0809372
:100A4000BA028093B902118E128E138E148E81AF6A
:100A5000158E168E178E10A240E050E068EC72E4FE
:100A600041A352A363A374A345A356A367A370A78E
:100A700040E050E064EB73E441A752A763A774A77A
:100A800015A616A617A610AA11AA12AA13AA14AA86
:100A9000848B0895AC010196FC01EB53FC4F20813F
:100AA0008D539D4FFC016081FA01EB53FC4F908107
:100AB0004D535D4FFA01408130E0359527953595CE
:100AC0002795F0E46F9FB0011124262B372B56E0B9
:100AD000220F331F5A95E1F720783F73892F90E05A
:100AE000959587959595879560E4469FA00111247B
:100AF000842B952B969587958F779927822B932B0F
:100B000008959091CF048091CE04981305C010925F
:100B1000CE0481E08093D0041092CD041092C704DB
:100B20000895E091C002F0E0EE0FFF1FEA5FFE4F74
:100B30000190F081E02D09950C9481054F925F9210
:100B40006F927F92BF92CF92DF92EF92FF920F93BC
:100B50001F93CF93DF93C82F162FD42FB62E641771
:100B600008F4B42E0B2DBC1608F40C2FD12ED1177F
:100B700008F4DD2ECD1508F4DC2E602F70E090E037
:100B800080E00E94C8282B013C0120E030E04FE7C4
:100B900053E40E94202820E030E048EC52E40E9418
:100BA0007F296093950570939605809397059093A0
:100BB0009805E02EF12CB7010F2C000C880B990B37
:100BC0000E94CA2820E030E0A9010E941B28882347
:100BD000A9F1B7016D197109072E000C880B990B4B
:100BE0000E94CA28A30192010E94202820E030E040
:100BF00048EC52E40E947F2960939105709392051E
:100C00008093930590939405C11321C0CD131FC009
:100C100010928D0510928E0510928F0510929005FE
:100C2000DF91CF911F910F91FF90EF90DF90CF90C8
:100C3000BF907F906F905F904F90089510929105B4
:100C4000109292051092930510929405DDCF002327
:100C5000F9F2B7016D197109072E000C880B990B79
:100C60000E94CA286B017C01CB15E8F0812F8D1BF7
:100C7000990BBC01072E000C880B990B0E94CA2807
:100C8000A70196010E94202820E030E040E752E4CE
:100C90000E947F2960938D0570938E0580938F0548
:100CA00090939005BDCF8C2F90E0101323C06D2F33
:100CB00070E0681B790B072E000C880B990B0E94C3
:100CC000CA28A70196010E94202820E030E040E0D9
:100CD00050E40E94AF2720E030E040E752E40E9459
:100CE0007F2960938D0570938E0580938F05909377
:100CF000900596CFBC01611B7109072E000C880B73
:100D0000990B0E94CA28A70196010E94202820E082
:100D100030E040E850E40E94AF2720E030E040E7B8
:100D200052E40E947F2960938D0570938E05809315
:100D30008F059093900574CF2091BF0230E0F901A8
:100D4000EB53FC4F8081F901ED53FD4F9081A901D8
:100D50004F5F5F4FFA01EB53FC4F60814D535D4F86
:100D6000DA01EC912E5F3F4FD901AB53BC4F4C9150
:100D70002D533D4FD9012C9150E0559547955595F0
:100D80004795B0E42B9F90011124422B70E075959C
:100D900067957595679520E4E29FF00111246E2B0D
:100DA00086958695A0E49A9F90011124822B0C943D
:100DB0009E05CF92DF92EF92FF92CF93DF93EC01EB
:100DC0002AAD3BAD4CAD5DAD6D8D7E8D8F8D98A107
:100DD0000E94AF276B017C0120E030E044EB53E43C
:100DE0000E947A2918160CF4EDC0CD8EDE8EEF8E9F
:100DF000F8A2CD8CDE8CEF8CF8A020E030E0A901C9
:100E0000C701B6010E941B2887FF0CC020E030E01C
:100E100044EB53E4C701B6010E94AF276D8F7E8F6C
:100E20008F8F98A3FE01FE962081318142815381EC
:100E300069A17AA18BA19CA10E94AF276B017C01C3
:100E400020E030E048EC52E40E947A2918160CF4B5
:100E5000C6C0C9A2DAA2EBA2FCA2C9A0DAA0EBA08C
:100E6000FCA020E030E0A901C701B6010E941B28C8
:100E700087FF0CC020E030E048EC52E4C701B60127
:100E80000E94AF2769A37AA38BA39CA3FE01EE5B0C
:100E9000FF4F20813181428153816DA17EA18FA1BD
:100EA00098A50E94AF276B017C0120E030E048EC60
:100EB00052E40E947A2918160CF49EC0CDA2DEA23C
:100EC000EFA2F8A6CDA0DEA0EFA0F8A420E030E0CD
:100ED000A901C701B6010E941B2887FF0CC020E0B2
:100EE00030E048EC52E4C701B6010E94AF276DA381
:100EF0007EA38FA398A7FE01EA5BFF4F208131817B
:100F000042815381698D7A8D8B8D9C8D0E94AF2794
:100F10006B017C0120E030E048EC52E40E947A2929
:100F200018160CF476C0C98EDA8EEB8EFC8EC98C46
:100F3000DA8CEB8CFC8C20E030E0A901C701B60113
:100F40000E941B2887FF0CC020E030E048EC52E4F0
:100F5000C701B6010E94AF27698F7A8F8B8F9C8F54
:100F6000FE01E65BFF4F20813181428153816DA9F3
:100F70007EA98FA998AD0E94AF276B017C0120E06C
:100F800030E048EC52E40E947A2918160CF44EC066
:100F9000CDAADEAAEFAAF8AE20E030E0A9016DA943
:100FA0007EA98FA998AD0E941B2887FF04C01DAAA7
:100FB0001EAA1FAA18AEDF91CF91FF90EF90DF908D
:100FC000CF90089520E030E044EB53E4C701B60130
:100FD0000E94AE276D8F7E8F8F8F98A30ACF20E05F
:100FE00030E048EC52E4C701B6010E94AE2769A385
:100FF0007AA38BA39CA331CF20E030E048EC52E4ED
:10100000C701B6010E94AE276DA37EA38FA398A748
:1010100059CF20E030E048EC52E4C701B6010E940D
:10102000AE27698F7A8F8B8F9C8F81CF80E090E085
:10103000A8ECB2E48DAB9EABAFABB8AFADCF2F9207
:101040003F924F925F926F927F928F929F92AF9258
:10105000BF92CF92DF92EF92FF920F931F93CF93A5
:10106000DF93CDB7DEB7AF970FB6F894DEBF0FBEF4
:10107000CDBF1C01CD86DE86EF86F88A098B1A8BE0
:101080002B8B3C8B4D8B5E8B6F8B788F24013501C6
:1010900020E030E0A90129966CAD7DAD8EAD9FAD0D
:1010A00029970E941B2887FD6FC120E030E048ECA3
:1010B00052E429966CAD7DAD8EAD9FAD29970E940F
:1010C0007A2918160CF460C120E030E0A901C301B0
:1010D000B2010E941B2887FF0BC020E030E048ECE3
:1010E00052E4C301B2010E94AF272B013C01ECCFB7
:1010F00020E030E048EC52E4C301B2010E947A29BA
:1011000087FD0BC020E030E048EC52E4C301B2019F
:101110000E94AE272B013C01EBCF8D899E89AF89C0
:10112000B88D8A8F9B8FAC8FBD8F25968FAD2597FD
:10113000882319F1D101ED91FC910480F581E02D16
:1011400019821A821B821C821D821E821F821886AF
:1011500019861A861B861C86812C912C5401C12C61
:10116000DA80EB80FC8000E01E812F81388540E032
:101170005A856B857C85C101099520E030E048ECFB
:1011800052E429966CAD7DAD8EAD9FAD29970E943E
:1011900020282A8D3B8D4C8D5D8D0E947F296E8F7E
:1011A0007DA78EA79FA7198E2A969FAD2A97892F74
:1011B00090E0B0E0A0E089A79AA7ABA7BCA7A98D53
:1011C0002A96BFAD2A97AB1709F4DEC06A2F70E0EC
:1011D00090E080E00E94C82820E030E048EC52E433
:1011E0000E947F296B017C0169A57AA58BA59CA52E
:1011F0000E94C8289B01AC01C701B6010E942028AB
:10120000A30192010E94AF276B017C0120E030E036
:10121000A901C701B6010E941B2887FF15C020E065
:1012200030E048EC52E4C701B6010E94AF276B01E1
:101230007C01ECCF20E030E048EC52E4C701B6017D
:101240000E94AE276B017C0120E030E048EC52E4C4
:10125000C701B6010E947A2987FFECCFF101038014
:10126000F481E02DFB8FEA8F10E000E0FFEFFBA39D
:101270002FEF2CA31F8E18A288EC89A392E49AA3C7
:10128000AA8DBB8DCD01B0E0A0E08DA39EA3AFA33E
:10129000B8A7EA8DFB8DE017F10709F453C0B80138
:1012A00090E080E00E94C8284B015C016DA17EA106
:1012B0008FA198A50E94C8289B01AC01C501B4016B
:1012C0000E94202820E030E048EC52E40E947F2970
:1012D0004B015C01AC019B01C701B6010E941B28B8
:1012E00087FF0AC020E030E048EC52E4C701B601B5
:1012F0000E94AF276B017C01A5019401C701B601D3
:101300000E94AE274B015C0120E030E0A9010E9461
:101310001B2887FF04C0B7FAB094B7F8B094A501B2
:1013200094016F8D78A189A19AA10E947A2918163B
:1013300034F40BA31CA38F8E98A2A9A2BAA20F5FAC
:101340001F4FA7CFD101ED91FC910280F381E02DD9
:101350002E8D822F9DA5AEA5BFA58D8B9E8BAF8BAD
:10136000B88FAD84BE84CF84D888E988FA880B8989
:101370001C893E894F89588D6BA17CA1C1010995BB
:10138000B98DBF5FB98F1BCFAF960FB6F894DEBF94
:101390000FBECDBFDF91CF911F910F91FF90EF90C6
:1013A000DF90CF90BF90AF909F908F907F906F9085
:1013B0005F904F903F902F9008952F923F924F92C1
:1013C0005F926F927F928F929F92AF92BF92CF92D5
:1013D000DF92EF92FF920F931F93CF93DF93CDB7DE
:1013E000DEB769970FB6F894DEBF0FBECDBF4C01D4
:1013F000C982DA82EB82FC820D831E832F833887B9
:1014000049875A876B877C8723968FAD23978D8773
:1014100024969FAD24979E872596AFAD2597AF87DD
:1014200026962FAC2697B12C27969FAD2797892F0C
:1014300090E0B0E0A0E08A8B9B8BAC8BBD8B2296BA
:101440008CAD9DADAEADBFAD2297B0588E8B9F8B4E
:10145000A88FB98F27969FAD2797B91609F4BFC0FB
:101460006A897B898C899D890E94C8282B013C014F
:101470006B2D70E090E080E00E94C82822962CAD91
:101480003DAD4EAD5FAD22970E947F29A301920131
:101490000E9420282AAD3BAD4CAD5DAD0E94AF2728
:1014A000A62E788B898B392ED4010D911C911F9219
:1014B0001F921F921F922F92BF85BF93EE85EF93CD
:1014C000FD85FF9320E030E040E05FE322966CADC5
:1014D0007DAD8EAD9FAD22970E947F29A301920121
:1014E0000E9420289F938F937F936F933F928989C7
:1014F0008F9398899F93AF92ADB7BEB71C970FB6E5
:10150000F894BEBF0FBEADBF11968CE0FE01BE9633
:1015100001900D928A95E1F7D8011696ED91FC9114
:10152000C980DA80EB80FC800D811E812F81388597
:1015300049855A856B857C85C4010995F401008134
:1015400011811F921F921F921F922F92FF85FF936E
:101550008E858F939D859F9320E030E040E05FE390
:101560006E897F89888D998D0E947F29A3019201C0
:101570000E9420289F938F937F936F933F92A98916
:10158000AF93B889BF93AF92EDB7FEB73C970FB654
:10159000F894FEBF0FBEEDBFADB7BEB711968CE09D
:1015A000FE01BE9601900D928A95E1F7D80116963C
:1015B000ED91FC91C980DA80EB80FC800D811E8169
:1015C0002F81388549855A856B857C85C4010995AD
:1015D000B3940FB6F894DEBF0FBECDBF3BCF699674
:1015E0000FB6F894DEBF0FBECDBFDF91CF911F9134
:1015F0000F91FF90EF90DF90CF90BF90AF909F90B2
:101600008F907F906F905F904F903F902F900895B4
:101610002F923F924F925F926F927F928F929F9202
:10162000AF92BF92CF92DF92EF92FF920F931F93F0
:10163000CF93DF93CDB7DEB72D970FB6F894DEBF0B
:101640000FBECDBF4C01C982DA82EB82FC820D83D2
:101650001E832F83388749875A876B877C878EA99B
:101660008D876FA8A8AC79ACB12C9AAD292E312CFE
:10167000512C412CAAADBA1609F463C0C201B101C4
:101680000E94C8286B017C01F401008111811F9226
:101690001F921F921F927F92AF926F92FD85FF93D0
:1016A000AC019B016AA97BA98CA99DA90E94202855
:1016B0009F938F937F936F936B2D70E090E080E00A
:1016C0000E94C8282AA93BA94CA95DA90E947F298C
:1016D000A70196010E9420282EA53FA548A959A937
:1016E0000E94AF279F938F937F936F938DB79EB781
:1016F0000C970FB6F8949EBF0FBE8DBFADB7BEB7A7
:1017000011968CE0FE01B29601900D928A95E1F758
:10171000D8011696ED91FC91C980DA80EB80FC80AF
:101720000D811E812F81388549855A856B857C8581
:10173000C4010995B3940FB6F894DEBF0FBECDBFB8
:1017400099CF2D960FB6F894DEBF0FBECDBFDF91B7
:10175000CF911F910F91FF90EF90DF90CF90BF90AE
:10176000AF909F908F907F906F905F904F903F9041
:101770002F9008952F923F924F925F926F927F9297
:101780008F929F92AF92BF92CF92DF92EF92FF9291
:101790000F931F93CF93DF93CDB7DEB7A3970FB609
:1017A000F894DEBF0FBECDBF9C8F8B8FCD86DE86BB
:1017B000EF86F88A098B1A8B2B8B3C8B4D8B5E8BBB
:1017C0006F8B788F28964CAC5DAC6EAC7FAC289755
:1017D00020E030E048EC52EC2C966CAD7DAD8EAD47
:1017E0009FAD2C970E941B2887FD5BC220E030E054
:1017F00048EC52E42C966CAD7DAD8EAD9FAD2C9730
:101800000E947A2918160CF44CC220E030E0A9019D
:1018100060966CAD7DAD8EAD9FAD60970E941B282C
:1018200087FD3FC220E030E048EC52E460966CADAA
:101830007DAD8EAD9FAD60970E947A2918160CF48D
:1018400030C2AB8DBC8D13960D911C916296EEAD9E
:10185000FFAD6297E017F10708F023C2CF0164964D
:101860002EAD3FAD6497820F931F0817190708F438
:1018700018C220E030E0A901C301B2010E941B2878
:1018800087FF0BC020E030E048EC52E4C301B20116
:101890000E94AF272B013C01ECCF20E030E048EC68
:1018A00052E4C301B2010E947A2918165CF420E0C8
:1018B00030E048EC52E4C301B2010E94AE272B0194
:1018C0003C01EBCF64968EAD9FAD6497892B21F4DC
:1018D00064961FAF0EAF64971A8E198E6496AEADE4
:1018E000BFAD6497CD01B0E0A0E08F8F98A3A9A30E
:1018F000BAA36496EEADFFAD6497298D3A8DE217D9
:10190000F30709F4CEC1B90190E080E00E94C82835
:101910006B017C016F8D78A189A19AA10E94C828D2
:101920009B01AC01C701B6010E94202820E030E0F5
:1019300048EC52E40E947F296B017C012C962CAD6F
:101940003DAD4EAD5FAD2C97C301B2010E94AF27F4
:101950004B015C0120E030E048EC52E40E947A291F
:10196000181694F4A7019601C301B2010E947A29C6
:10197000181654F420E030E048EC52E4C701B601F8
:101980000E94AF276B017C0120E030E0A901C50176
:10199000B4010E941B2887FF12C0A7019601C30152
:1019A000B2010E941B2887FF0AC020E030E048EC0B
:1019B00052E4C701B6010E94AE276B017C0120E012
:1019C00030E0A9012C966CAD7DAD8EAD9FAD2C970E
:1019D0000E947A291816BCF4A7019601C301B2012E
:1019E0000E947A29181644F0A5019401C701B60196
:1019F0000E947A2987FD24C0298D3A8D2F5F3F4FA1
:101A00003A8F298F76CF20E030E0A9012C966CAD7B
:101A10007DAD8EAD9FAD2C970E941B2887FF41C1E5
:101A2000A7019601C301B2010E941B28181624F7D2
:101A3000A5019401C701B6010E941B2887FDDCCFD8
:101A4000A3019201C701B6010E94AE276B017C0180
:101A500028AD39AD4AAD5BAD0E947F292C962CADE7
:101A60003DAD4EAD5FAD2C970E9420282D853E8563
:101A70004F8558890E94AF27062F272E382EA92E72
:101A80002CAD3DAD4EAD5FADC701B6010E947F29C3
:101A90002C962CAD3DAD4EAD5FAD2C970E9420280D
:101AA00029893A894B895C890E94AF27162F872E96
:101AB000982EB92E24962CAD3DAD4EAD5FAD24973A
:101AC000C701B6010E947F292C962CAD3DAD4EADCD
:101AD0005FAD2C970E9420282D893E894F89588D13
:101AE0000E94AF276B017C0120E030E0A901602F4C
:101AF000722D832D9A2D0E941B2887FF0FC020E096
:101B000030E044EB53E4602F722D832D9A2D0E9418
:101B1000AF27062F272E382EA92EE6CF20E030E063
:101B200044EB53E4602F722D832D9A2D0E947A2965
:101B300018167CF420E030E044EB53E4602F722D63
:101B4000832D9A2D0E94AE27062F272E382EA92EE0
:101B5000E5CF20E030E0A901612F782D892D9B2D64
:101B60000E941B2887FF0FC020E030E048EC52E4C1
:101B7000612F782D892D9B2D0E94AF27162F872E40
:101B8000982EB92EE6CF20E030E048EC52E4612FE9
:101B9000782D892D9B2D0E947A2918167CF420E03F
:101BA00030E048EC52E4612F782D892D9B2D0E9466
:101BB000AE27162F872E982EB92EE5CF20E030E0E5
:101BC000A901C701B6010E941B2887FF0BC020E0B6
:101BD00030E048EC52E4C701B6010E94AF276B0128
:101BE0007C01ECCF20E030E048EC52E4C701B601C4
:101BF0000E947A2918165CF420E030E048EC52E4A8
:101C0000C701B6010E94AE276B017C01EBCFAB8D03
:101C1000BC8DED91FC91228133813E8F2D8F0BA3E2
:101C2000802F922DA32DBA2D89839A83AB83BC83F9
:101C3000812F982DA92DBB2D8D839E83AF83B887CF
:101C400020E030E048EC52E460966CAD7DAD8EADA6
:101C50009FAD60970E942028A70196010E947F29CE
:101C6000262F462F572FBC0149875A876B877C87C1
:101C7000698D7A8D62968EAD9FAD6297680F791FE0
:101C8000ABA0BA80CB80DC80E12EFE800F8118856E
:101C90003A854B855C858B8D9C8DED8DFE8D0995F0
:101CA000ABCEA3960FB6F894DEBF0FBECDBFDF91CB
:101CB000CF911F910F91FF90EF90DF90CF90BF9049
:101CC000AF909F908F907F906F905F904F903F90DC
:101CD0002F900895DC0121153105F1F0240F351FF7
:101CE000F8944F5F5F4F5596ED91FC915697E40F36
:101CF000F51F3197808190E8792F7823969568B900
:101D0000711125C00000000018B8911112C02417ED
:101D1000350761F47894089513968D919C911497EA
:101D20009C01220F331F280F391FDACF4F5F5F4FFF
:101D3000DACF0000000000000000000000000000FA
:101D4000000000000000000000000000D5CF0000EF
:101D50000000000000000000000000000000000083
:101D60000000000000000000000000000000000073
:101D7000000018B89111C0CFCACF8F929F92AF9236
:101D8000BF92CF92DF92EF92FF920F931F93CF9368
:101D9000DF93EC018C89823009F4BFC008F046C0A3
:101DA000882309F45BC0813009F470C089858823D9
:101DB00009F424C18E015E01FAE0AF0EB11CD12CF2
:101DC000C12CFF24F3946A816F21C9F0D8011A96BF
:101DD0008D919C91009799F09C01220F331F280F41
:101DE000391FA601CE010E946A0EF80122853385B3
:101DF000C901880F991F820F931FC80ED91EFF0CAF
:101E00000E5F1F4FA016B106F1F683E795E001972C
:101E1000F1F7DF91CF911F910F91FF90EF90DF903D
:101E2000CF90BF90AF909F908F900895833009F42A
:101E3000BBC0843009F0BACF898C9A8CAB8CBC8C37
:101E4000E881F98189AD8F9388AD8F938FA98F93A6
:101E50008EA98F938DA98F931F92B8C08DA89EA82D
:101E6000AFA8B8ACE881F9810480F581E02DCD8C74
:101E7000DE8CEF8CF8A009A11AA12BA13CA14DA1E9
:101E80005EA16FA178A5CE01099590CF28813981F7
:101E900089AD8F9388AD8F938FA98F938EA98F93E0
:101EA0008DA98F9382E48F9388EC8F931F921F925A
:101EB0008C8D8F938B8D8F938A8D8F93898D8F933C
:101EC0008DB79EB70C970FB6F8949EBF0FBE8DBF0F
:101ED000ADB7BEB711968CE0FE01B99601900D9298
:101EE0008A95E1F7D9011896ED91FC91CD8CDE8CA5
:101EF000EF8CF8A009A11AA12BA13CA14DA15EA1D4
:101F00006FA178A5CE010995EDB7FEB779960FB60A
:101F1000F894FEBF0FBEEDBF49CF2881398189AD4E
:101F20008F9388AD8F938FA98F938EA98F938DA94F
:101F30008F9382E48F9388EC8F931F921F928C8DE6
:101F40008F938B8D8F938A8D8F93898D8F938DB780
:101F50009EB70C970FB6F8949EBF0FBE8DBFADB75E
:101F6000BEB711968CE0FE01B99601900D928A954C
:101F7000E1F7D9011A96ED91FC91CD8CDE8CEF8CB6
:101F8000F8A009A11AA12BA13CA14DA15EA16FA1AE
:101F900078A5CE010995EDB7FEB779960FB6F894FE
:101FA000FEBF0FBEEDBF02CF898C9A8CAB8CBC8C70
:101FB000E881F98189AD8F9388AD8F938FA98F9335
:101FC0008EA98F938DA98F9381E08F930484F585DB
:101FD000E02DCD8CDE8CEF8CF8A009A11AA12BA1ED
:101FE0003CA14DA15EA16FA178A5CE0109950F90EE
:101FF0000F900F900F900F900F90D8CE30E020E010
:1020000050E040E06A81CE010E946A0EFECE80E779
:1020100095E00C94BD0EFC0181E0848B158E168E2C
:10202000178E10A280E090E0A8ECB2E481A392A306
:10203000A3A3B4A385A396A3A7A3B0A711A612A692
:1020400013A614A615A616A617A610AA11AA12AAB8
:1020500013AA14AA12AE13AE14AE15AEDF01DE96AB
:102060001D921D921D921C92139714961D921D9203
:102070001D921C921397118E128E138E148E14962D
:102080001D921D921D921C92139780E090E0DC013E
:10209000662321F080E090E0A8ECB2E485AB96AB3B
:1020A000A7ABB0AFDF01A65BBF4F1D921D921D9283
:1020B0001C92139781E081AF0895CF92DF92EF9247
:1020C000FF921F93CF93DF93C0E7D5E01C89CDA08B
:1020D000DEA0EFA0F8A41C8A1DA21EA21FA218A6B3
:1020E0001092BA021092B9021092B3021092B60284
:1020F0001092B5021092B40280E090E0A0E8BFE335
:102100008093AF029093B002A093B102B093B20259
:102110008093AA029093AB02A093AC02B093AD025D
:102120008093A5029093A602A093A702B093A80261
:102130008093A0029093A102A093A202B093A30265
:10214000CE010E94BD0E61E0CE010E940B101C8BDF
:10215000CDA2DEA2EFA2F8A6DF91CF911F91FF9052
:10216000EF90DF90CF9008952F923F924F925F9221
:102170006F927F928F929F92AF92BF92CF92DF9297
:10218000EF92FF920F931F93CF93DF9300D000D075
:10219000CDB7DEB77C01FC0100851185F285FC839B
:1021A000FC01F385FB83F70180809180A280B380DE
:1021B00020E030E044EB53E4C501B4010E947A29E9
:1021C00087FD0EC020E030E044EB53E4C501B401CC
:1021D0000E94AE27F7016083718382839383E3CFEC
:1021E000F701C480D580E680F78020E030E0A901C7
:1021F000C701B6010E947A29181644F520E030E0A4
:1022000040E752E4C501B4010E9420282B013C01A3
:102210000E9492285B01072E000C880B990B0E94EC
:10222000CA289B01AC01C301B2010E94AE272B0159
:102230003C01F2E0AF16B10409F4E7C06CF4A1145C
:10224000B104B9F1AA94AB2809F46CC06801EC8020
:10225000FB80480157019EC0F4E0AF16B10409F4B9
:1022600054C10CF414C1E5E0AE16B10479F720E0D6
:1022700030E048EC52E4C701B6010E9420289B01DF
:10228000AC0160E070E080E89FE30E94AE27980117
:102290004C815B810E947F294B015C01A30192016B
:1022A000C701B6010E947F2920E030E048EC52E4EB
:1022B00027C0A301920160E070E080E89FE30E94E4
:1022C000AE27A70196010E947F2920E030E048EC6C
:1022D00052E40E9420289B01AC0160E070E080E89D
:1022E0009FE30E94AE2798014C815B810E947F2969
:1022F0004B015C0120E030E048EC52E4C701B6013C
:102300000E9420289B01AC0160E070E080E89FE320
:102310000E94AE2798014C815B810E947F296B014E
:102320007C0138C0A3019201C701B6010E947F2938
:1023300020E030E048EC52E40E9420289B01AC01F0
:1023400060E070E080E89FE30E94AE2798014C8136
:102350005B810E947F292B013C0120E030E048ECAA
:1023600052E4C701B6010E9420289B01AC0160E045
:1023700070E080E89FE30E94AE2798014C815B816A
:102380000E947F296B017C014801AC80BB808201E7
:102390006C827B8223E333E343E250E4B8018C8117
:1023A0009B810E947F290E949228698323E333E363
:1023B00043E250E4B401C5010E947F290E949228A3
:1023C0006A8323E333E343E250E4B601C7010E948A
:1023D0007F290E949228862F69817A810F900F9021
:1023E0000F900F90DF91CF911F910F91FF90EF9081
:1023F000DF90CF90BF90AF909F908F907F906F9025
:102400005F904F903F902F90089520E030E048EC8F
:1024100052E4C701B6010E9420289B01AC0160E094
:1024200070E080E89FE30E94AE2798014C815B81B9
:102430000E947F291B0189839A83A301920160E096
:1024400070E080E89FE30E94AE27A70196010E94FA
:102450007F2920E030E048EC52E40E9420289B01D4
:10246000AC0160E070E080E89FE30E94AE27980135
:102470004C815B810E947F296B017C014801AC800B
:10248000BB808101F981FC838A818B8383CF20E02B
:1024900030E048EC52E4C701B6010E9420289B01BD
:1024A000AC0160E070E080E89FE30E94AE279801F5
:1024B0004C815B810E947F29362E272E89839A8347
:1024C000A3019201C701B6010E947F2920E030E0FC
:1024D00048EC52E40E9420289B01AC0160E070E0CF
:1024E00080E89FE30E94AE2798014C815B810E94A7
:1024F0007F294B015C016801EC80FB80032D122DCC
:10250000E981EC83FA81FB8345CFA301920160E06E
:1025100070E080E89FE30E94AE27A70196010E9429
:102520007F2920E030E048EC52E40E9420289B0103
:10253000AC0160E070E080E89FE30E94AE27980164
:102540004C815B810E947F293B01582E492E20E05F
:1025500030E048EC52E4C701B6010E9420289B01FC
:10256000AC0160E070E080E89FE30E94AE27980134
:102570004C815B810E947F294B015C016801EC80EA
:10258000FB8083015C824B8205CF6F927F928F929A
:102590009F92AF92BF92CF92DF92EF92FF920F93F2
:1025A0001F93CF93DF93CDB7DEB72C970FB6F89478
:1025B000DEBF0FBECDBF3C01C982DA82EB82FC8256
:1025C0000D831E832F83388749875A876B877C87C3
:1025D00020E030E048EC52E4C501B4010E9420281C
:1025E0009B01AC0169857A858B859C850E947F293A
:1025F00069877A878B879C87CE0101960E94B410E9
:1026000050E040E0D30113962D913C91149742176E
:10261000530738F59A01220F331F5796ED91FC911D
:102620005897E20FF31F20813181F901EE0FFF1F50
:102630002E0F3F1F5596ED91FC915697E20FF31F19
:1026400060835596ED91FC915697E20FF31F7183CD
:102650005596ED91FC91E20FF31F82834F5F5F4F20
:10266000D1CF2C960FB6F894DEBF0FBECDBFDF9151
:10267000CF911F910F91FF90EF90DF90CF90BF907F
:10268000AF909F908F907F906F9008956F927F9200
:102690008F929F92AF92BF92CF92DF92EF92FF9272
:1026A0000F931F93CF93DF93CDB7DEB72C970FB661
:1026B000F894DEBF0FBECDBF4C013B01A982BA82A8
:1026C000CB82DC82ED82FE820F83188729873A87CE
:1026D0004B875C87CE0101960E94B410660C771C74
:1026E000D4015796ED91FC915897E60DF71D408166
:1026F00051819A01220F331F240F351F5596ED91FA
:10270000FC915697E20FF31F60835596ED91FC9173
:102710005697E20FF31F718355964D915C91240FEC
:10272000351FF90182832C960FB6F894DEBF0FBED9
:10273000CDBFDF91CF911F910F91FF90EF90DF9070
:10274000CF90BF90AF909F908F907F906F900895A3
:102750008F929F92AF92BF92CF92DF92EF92FF92B1
:102760000F931F93CF93DF93912C812CD0E0C0E087
:102770000091BF02080D192D111DF801EB53FC4FFC
:102780008081F801ED53FD4F908198012F5F3F4FFD
:10279000F901EB53FC4F60812D533D4FF90120812E
:1027A00070E07595679575956795F0E42F9F90019A
:1027B0001124622B732B46E0660F771F4A95E1F7D1
:1027C0009B0120783F77682F70E075956795759528
:1027D000679540E4949FC0011124682B792B75956F
:1027E0006795620F732F711D072E000C880B990BD4
:1027F0000E94CA2860938D0570938E0580938F0583
:1028000090939005C8010296FC01EB53FC4F608148
:102810008D539D4FFC01808170E07595679575958E
:102820006795F0E48F9FC0011124682B792B769572
:10283000679570E090E080E00E94CA28609391055F
:102840007093920580939305909394050D5F1F4FAD
:10285000F801EB53FC4F60810D531D4FF80180814F
:1028600070E07595679575956795F0E48F9FC00149
:102870001124682B792B7695679570E090E080E0C5
:102880000E94CA28262F462F572FBC01409395053A
:10289000509396056093970570939805A0908D05C9
:1028A000B0908E05C0908F05D0909005E090910576
:1028B000F090920500919305109194053091960542
:1028C0004091970550919805BE0180E795E00E94E0
:1028D0004613219624E0820E911CCA30D10509F0DE
:1028E00047CF80E090E0A0EAB0E480938905909320
:1028F0008A05A0938B05B0938C0580E795E0DF9166
:10290000CF911F910F91FF90EF90DF90CF90BF90EC
:10291000AF909F908F900C94BD0E8F929F92AF922C
:10292000BF92CF92DF92EF92FF920F931F93CF93BC
:10293000DF93912C812CD0E0C0E02091BF02280DC4
:10294000392D311DF901EB53FC4F8081F901ED5315
:10295000FD4F9081A9014F5F5F4FFA01EB53FC4F90
:1029600060814D535D4FDA01EC912E5F3F4FD901ED
:10297000AB53BC4F4C912D533D4FD9012C9150E09E
:102980005595479555954795B0E42B9F9001112497
:10299000422B70E0759567957595679520E4E29FE9
:1029A000F00111246E2B86958695A0E49A9F9001E4
:1029B0001124822B0E949E05A0908D05B0908E055B
:1029C000C0908F05D0909005E0909105F090920511
:1029D00000919305109194052091950530919605ED
:1029E0004091970550919805BE0180E795E00E94BF
:1029F00046132196B3E08B0E911CCA30D10509F025
:102A00009CCF80E090E0A0EAB0E4809389059093A9
:102A10008A05A0938B05B0938C0580E795E0DF9144
:102A2000CF911F910F91FF90EF90DF90CF90BF90CB
:102A3000AF909F908F900C94BD0EAF92BF92CF92AB
:102A4000DF92EF92FF920F931F93CF93DF93C0918A
:102A5000BF02D0E0DE01AB53BC4F1C91FE01ED5331
:102A6000FD4F00816C91808170E07595679575953B
:102A7000679520E4829FC0011124682B792B7595FE
:102A800067956F777727072E000C880B990B0E94AC
:102A9000CA2820E030E040E251E40E947F2920E093
:102AA00030E040EA50E40E94AF27609389057093BC
:102AB0008A0580938B0590938C059E012F5F3F4F75
:102AC000F901EB53FC4F80812D533D4FF90190816B
:102AD0009E012E5F3F4FF901EB53FC4F60812D5358
:102AE0003D4FF90120812396FE01EB53FC4F4081BD
:102AF000CD53DD4FE88150E0559547955595479565
:102B000030E4E39FF00111244E2B70E0759567953A
:102B100075956795E0E42E9F90011124622B8695B0
:102B20008695F0E49F9F90011124822B0E949E05C0
:102B3000EDE8F5E0612F70E07595679575956795FF
:102B400020E4029F80011124602B712B75956795FD
:102B50006F777727A080B180C280D380E480F58032
:102B600006811781208531854285538580E795E070
:102B70000E944613DF91CF911F910F91FF90EF902C
:102B8000DF90CF90BF90AF900895FC01019000209E
:102B9000E9F73197AF01481B590BBC0183ED94E075
:102BA0000C94C9008F929F92AF92BF920F931F9384
:102BB000CF93DF93CDB7DEB7A1970FB6F894DEBF02
:102BC0000FBECDBF19A2423008F44AE08E010F5D5E
:102BD0001F4F842E912CB12CA12CA50194010E9491
:102BE0008A2BE62FB901CA01EA30F4F4E05DD8017E
:102BF000EE938D01232B242B252B79F790E080E099
:102C0000109719F0CD010E94C515A1960FB6F89442
:102C1000DEBF0FBECDBFDF91CF911F910F91BF904F
:102C2000AF909F908F900895E95CE1CFBC01990F20
:102C3000880B990B4AE00C94D2150C94C5154F9251
:102C40005F926F927F928F929F92AF92BF92CF923C
:102C5000DF92EF92FF920F931F93CF936B017C0152
:102C6000742EAC019B010E943C2A882399F08AE9CA
:102C700091E0CF911F910F91FF90EF90DF90CF9057
:102C8000BF90AF909F908F907F906F905F904F908C
:102C90000C94C51546015701E894B7F82FEF3FEFA4
:102CA0004FE75FE7C501B4010E943C2A81110DC0C6
:102CB0002FEF3FEF4FE75FE7C501B4010E941B28EC
:102CC00018161CF48EE991E0D4CF2FEF3FEF4FE7B9
:102CD0005FE4C701B6010E947A2918161CF482EA43
:102CE00091E0C7CF2FEF3FEF4FE75FECC701B60191
:102CF0000E941B2887FDF3CF20E030E0A901C70127
:102D0000B6010E941B2810E000E087FF0AC06DE2B8
:102D100083ED94E00E9469018C01F7FAF094F7F8D2
:102D2000F094C0E060E070E080E09FE37C1641F04A
:102D300020E030E040E251E40E942028CF5FF6CF4F
:102D4000A70196010E94AF272B013C010E94992800
:102D50004B015C014AE00E94D2157C01E00EF11E9D
:102D6000CC23C1F1C501B4010E94C8289B01AC016C
:102D7000C301B2010E94AE274B015C016EE283EDFC
:102D800094E00E946901E80EF91EC15018F120E09C
:102D900030E040E251E4C501B4010E947F292B01DB
:102DA0003C010E9499284B01B12CA12C4AE0C5019D
:102DB000B4010E94D215E80EF91EC501B4010E94AB
:102DC000C8289B01AC01C301B2010E94AE274B0190
:102DD0005C01DBCFC701CF911F910F91FF90EF9066
:102DE000DF90CF90BF90AF909F908F907F906F902B
:102DF0005F904F9008950C941F16CF93DF930E941D
:102E00001F16EC0186EA91E00E94C5158C0F9D1FEC
:102E1000DF91CF910895CF93DF9389EA91E00E94EB
:102E20001D16C0E7D5E06AAD7BAD8CAD9DAD46E02B
:102E300050E00E94FB1688EC91E00E941D16609104
:102E4000AE057091AF058091B0059091B10546E057
:102E500050E00E94FB1680ED91E00E941D166091EB
:102E6000B2057091B3058091B4059091B50546E027
:102E700050E00E94FB1688ED91E00E941D166091C3
:102E8000B6057091B7058091B8059091B90546E0F7
:102E900050E00E94FD1680EE91E00E941D166D8D9F
:102EA0007E8D8F8D98A146E050E00E94FB1688EC45
:102EB00091E00E941D1669A17AA18BA19CA146E018
:102EC00050E00E94FB1680ED91E00E941D166DA15E
:102ED0007EA18FA198A546E050E00E94FB1688EDE8
:102EE00091E00E941D16698D7A8D8B8D9C8D46E038
:102EF00050E00E94FD168BEE91E00E941D1669A520
:102F00007AA58BA59CA546E050E00E94FB1688ECB4
:102F100091E00E941D166DA57EA58FA598A946E09B
:102F200050E00E94FB1680ED91E00E941D1669A9F9
:102F30007AA98BA99CA946E050E00E94FB1688ED77
:102F400091E0DF91CF910C941D16AF92BF92CF927A
:102F5000DF92EF92FF920F931F93CF93DF93C09175
:102F6000BF02D0E0DE01AB53BC4F1C91FE01ED531C
:102F7000FD4F00816C91808170E075956795759526
:102F8000679520E4829FC0011124682B792B7595E9
:102F900067956F777727072E000C880B990B0E9497
:102FA000CA2820E030E040E251E40E947F2920E07E
:102FB00030E040EA50E40E94AF27609389057093A7
:102FC0008A0580938B0590938C059E012F5F3F4F60
:102FD000F901EB53FC4F80812D533D4FF901908156
:102FE0009E012E5F3F4FF901EB53FC4F60812D5343
:102FF0003D4FF901208170E075956795759567954E
:10300000F0E42F9F90011124622B732B46E0660F92
:10301000771F4A95E1F79B0120783F77682F70E092
:10302000759567957595679540E4949FC001112447
:10303000682B792B75956795620F732F711D072E7D
:10304000000C880B990B0E94CA2860938D05709321
:103050008E0580938F0590939005CE010396FC0119
:10306000EB53FC4F60818D539D4FFC01808170E0DC
:103070007595679575956795F0E48F9FC00111244C
:10308000682B792B7695679570E090E080E00E9440
:10309000CA2860939105709392058093930590934D
:1030A00094052496FE01EB53FC4F6081CD53DD4F18
:1030B000888170E0759567957595679520E4829F86
:1030C000C0011124682B792B7695679570E090E00C
:1030D00080E00E94CA28262F462F572FBC0140931C
:1030E0009505509396056093970570939805612F09
:1030F00070E0759567957595679540E4049F80012C
:103100001124602B712B759567956F777727A090A9
:103110008D05B0908E05C0908F05D0909005E09001
:103120009105F090920500919305109194053091CE
:103130009605409197055091980580E795E00E948B
:10314000461380918E02882361F0DF91CF911F9109
:103150000F91FF90EF90DF90CF90BF90AF900C94C5
:103160000B17DF91CF911F910F91FF90EF90DF90A0
:10317000CF90BF90AF900895CF93DF930E94C51575
:10318000EC0186EA91E00E94C5158C0F9D1FDF912E
:10319000CF910895CF93DF93EB010E949827888306
:1031A000CE01DF91CF910895CF93DF93EB010E9481
:1031B00098278883CE01DF91CF910895CF92DF9237
:1031C000EF92FF920F931F93CF93DF93EB017B015D
:1031D00024E0E20EF11C8B016C01C61AD70AC6016D
:1031E000800F911F0E949827F80181938F01EE159F
:1031F000FF05A9F7CE01DF91CF911F910F91FF90AD
:10320000EF90DF90CF900895CF93DF93EC0169E8C2
:1032100075E00E94DE1869EA75E0CE0104960E940E
:10322000D4186DE875E0CE0105960E94DE1861E9BC
:1032300075E0CE0109960E94DE1865E975E0CE01C1
:103240000D960E94DE1869E975E0CE0141960E9454
:10325000DE186DE975E0CE0145960E94DE1861EA40
:1032600075E0CE0149960E94DE186EEA72E0CE014A
:103270004D960E94CA1869EA72E0CE014E960E94ED
:10328000CA1864EA72E0CE014F960E94CA186FE92C
:1032900072E0CE0180960E94CA186AEA75E0CE01FB
:1032A00081960E94DE186EEA75E0CE0185960E9436
:1032B000DE1862EB75E0CE0189960E94DE1866EB9F
:1032C00075E0CE018D960E94DE1864E875E0CE01AF
:1032D000C196DF91CF910C94D4182091BF0230E0B9
:1032E000F901EB53FC4F80812D533D4FF9012081B3
:1032F00090E09595879595958795F0E42F9F90019F
:103300001124822B932B969587958F77992785305B
:10331000910540F401969695982F88279795879563
:103320000C9404190895CF92DF92EF92FF928530AA
:10333000910568F084509E4F9695982F8827979511
:103340008795FF90EF90DF90CF900C94041940E0A8
:1033500050E064EB73E44093990550939A056093B1
:103360009B0570939C0510929D0510929E051092EE
:103370009F051092A0051092A1051092A20510922F
:10338000A3051092A4051092AE021092A90221E0AA
:103390002093A40210929F0240E050E060E87FE397
:1033A0004093AA055093AB056093AC057093AD05AF
:1033B0001092AE051092AF051092B0051092B105B3
:1033C000C12CD12CE12C3FE3F32EC092B205D09258
:1033D000B305E092B405F092B5054093B60550935D
:1033E000B7056093B8057093B9058093840500977D
:1033F00069F44093B2055093B3056093B40570939C
:10340000B505FF90EF90DF90CF9008958130910542
:1034100069F480E090E0A0EAB0E48093B605909370
:10342000B705A093B805B093B905EBCF82309105ED
:1034300069F48DEC9CECACE4BFE38093B60590930B
:10344000B705A093B805B093B905DBCF83309105DC
:1034500059F4C092B605D092B705E092B805F09243
:10346000B90520939F02CDCF049759F680E090E0F4
:10347000A0E0B0E48093B6059093B705A093B8059B
:10348000B093B90520939F02BCCFFF920F931F9377
:10349000CF93DF931092BA021092890510928A0599
:1034A00010928B0510928C05FF24F394F092A905DD
:1034B00010928D0510928E0510928F051092900536
:1034C00080E090E0A8ECB2E480939105909392059F
:1034D000A0939305B09394058093950590939605DA
:1034E000A0939705B09398051092B8021092B70276
:1034F0001092B9020091BF0210E0F801EB53FC4FAB
:10350000C081F801ED53FD4F8081D0E0D595C7957E
:10351000D595C79520E4829FC0011124C82BD92BD3
:10352000D595C795CF77DD27CE010E949319C0931B
:10353000B302D093B502C093B40298012F5F3F4FFE
:10354000F901EB53FC4F80812D533D4FF901208150
:1035500090E09595879595958795F0E42F9F90013C
:103560001124822B932B969587958F77992780939B
:10357000B602C81788F11092B9020E5F1F4FF8010A
:10358000EB53FC4F20810D531D4FF801808130E03B
:103590003595279535952795F0E48F9FC001112427
:1035A000282B392B369527952F7733272115310571
:1035B000B1F481E792E09093D2048093D10480E744
:1035C00095E00E94BD0E81E08093BA02DF91CF9119
:1035D0001F910F91FF900895F092B902CECF41E76D
:1035E00052E0249FC001259F900D349F900D11241F
:1035F0006AE070E00E94762B7093D2046093D1044D
:10360000DECFFF920F931F93CF93DF93EC01F62E43
:1036100008811981C8010E949827F81621F06F2DA2
:10362000C8010E94A027CE01DF91CF911F910F9179
:10363000FF9008950F931F93CF93DF9300D0CDB7E2
:10364000DEB783E190E09A83898301ED14E0F8010D
:103650006081CE0101960E94011B84E190E09A8373
:103660008983F8016181CE0101960E94011BC80186
:103670000F900F90DF91CF911F910F9108950F93AD
:103680001F93CF93DF9300D0CDB7DEB78B019A8322
:103690008983FB016081CE0101960E94011BC80154
:1036A0000F900F90DF91CF911F910F91089520916E
:1036B000BF0230E0F901EB53FC4F80812D533D4FA9
:1036C000F901208190E09595879595958795F0E48F
:1036D0002F9F90011124822B932B969587958F779E
:1036E0009927892B61F48DEF91E00E94BC1810920C
:1036F0008E026EE872E080E190E00C943F1B81E165
:1037000092E00E94BC1881E080938E02F2CF0F936A
:103710001F93CF93DF9300D0CDB7DEB78B019A8391
:103720008983FB016081CE0101960E94011BC801C3
:103730000F900F90DF91CF911F910F9108956AEB39
:1037400072E081E190E00E943F1B69EB72E082E150
:1037500090E00E943F1B0E941A1B63EB72E085E120
:1037600090E00E94871B66EB72E086E190E00E9489
:10377000871B6EE872E087E190E00C943F1BAF92EC
:10378000BF92CF92DF92EF92FF920F931F93CF934E
:10379000DF9300D0CDB7DEB78B016B0124E0C20E02
:1037A000D11C7B015C01A61AB70AC5018E0D9F1DB5
:1037B0009A838983F70161917F01CE0101960E946E
:1037C000011BEC14FD0489F7C8010F900F90DF91E5
:1037D000CF911F910F91FF90EF90DF90CF90BF900E
:1037E000AF900895CF93DF93EC0169E875E00E94F4
:1037F000BF1B69EA75E0CE0104960E94871B6DE845
:1038000075E0CE0105960E94BF1B61E975E0CE010F
:1038100009960E94BF1B65E975E0CE010D960E94D6
:10382000BF1B69E975E0CE0141960E94BF1B6DE99F
:1038300075E0CE0145960E94BF1B61EA75E0CE019E
:1038400049960E94BF1B6EEA72E0CE014D960E941F
:103850003F1B69EA72E0CE014E960E943F1B64EA6C
:1038600072E0CE014F960E943F1B6FE972E0CE01DD
:1038700080960E943F1B6AEA75E0CE0181960E9405
:10388000BF1B6EEA75E0CE0185960E94BF1B62EBFE
:1038900075E0CE0189960E94BF1B66EB75E0CE01F4
:1038A0008D960E94BF1B64E875E0CE01C196DF9142
:1038B000CF910C94871B2091BF0230E0F901EB53AC
:1038C000FC4F80812D533D4FF901208190E095956B
:1038D000879595958795F0E42F9F90011124822B71
:1038E000932B969587958F7799278530910540F48E
:1038F00001969695982F8827979587950C94F21B9B
:10390000089584E292E00E94BC186AE590E080E0AD
:103910000E94A0276EE872E080E190E00E943F1BC9
:103920006AEB72E081E190E00E943F1B69EB72E07C
:1039300082E190E00E943F1B0E941A1B63EB72E041
:1039400085E190E00E94871B66EB72E086E190E0E3
:103950000E94871B80E890E00E94F21B80E091E0CB
:103960000E94F21B80E891E00E94F21B80E092E04E
:103970000E94F21B80E892E00C94F21B0E94BF04AC
:103980000C94811C8F929F92AF92BF92CF92DF9244
:10399000FF920F931F93CF93DF93C091BF02D0E0AC
:1039A000CE010E944A05F82ECE0102960E944A05D9
:1039B0006C01CE0104960E944A058C01CE01069648
:1039C0000E944A05EC01B60184E0759567958A95D9
:1039D000E1F76F70772770E090E080E00E94C828E0
:1039E00020E030E543EC57E40E947F294B015C0165
:1039F0006C2D6F7070E090E080E00E94C82820E09D
:103A000030E44CE156E40E947F299B01AC01C501E2
:103A1000B4010E94AF274B015C01B80194E0759599
:103A200067959A95E1F76F70772770E090E080E0F6
:103A30000E94C82820E030E04AE754E40E947F2931
:103A40009B01AC01C501B4010E94AF274B015C0191
:103A50000F70602F70E090E080E00E94C82820E0A6
:103A600030E048EC52E40E947F299B01AC01C50183
:103A7000B4010E94AF274B015C01BE0124E07595A3
:103A800067952A95E1F76F70772770E090E080E006
:103A90000E94C82820E030E040E251E40E947F29E3
:103AA0009B01AC01C501B4010E94AF274B015C0131
:103AB000CF706C2F70E090E080E00E94C8289B01DE
:103AC000AC01C501B4010E94AF274B015C016F2D11
:103AD0006F7770E090E080E00E94CA2820E030E03C
:103AE0004CE852E40E94AE279B01AC0160E070E01C
:103AF00080E291E40E94EC299B01AC01C501B40174
:103B00000E947F29F7FC9058DF91CF911F910F9170
:103B1000FF90DF90CF90BF90AF909F908F900895CF
:103B2000CF92DF92EF92FF920E94C21C6B017C0148
:103B300020E030E048EC52E40E947A2987FF17C069
:103B400020E030E048EC52ECC701B6010E941B288F
:103B5000181634F0C12CD12C98ECE92E92ECF92EE9
:103B6000C701B601FF90EF90DF90CF900895C12C70
:103B7000D12C88ECE82E82E4F82EF2CF0E94901D22
:103B80006093B6057093B7058093B8059093B90517
:103B900008950E94901D6093B2057093B3058093C1
:103BA000B4059093B50508950E94901D6093AE05ED
:103BB0007093AF058093B0059093B10508950E946E
:103BC000901D6093A5057093A6058093A70590931B
:103BD000A80508950E94901D6093A1057093A20509
:103BE0008093A3059093A40508950E94901D60936F
:103BF0009D0570939E0580939F059093A005089561
:103C00000E94901D6093950570939605809397058B
:103C10009093980508950E94901D6093910570936C
:103C2000920580939305909394050895CF92DF9227
:103C3000EF92FF920E94C21C6B017C0120E030E0F9
:103C400044EB53E40E947A2987FF17C020E030E05C
:103C500044EB53ECC701B6010E941B28181634F040
:103C6000C12CD12C94EBE92E93ECF92EC701B601AF
:103C7000FF90EF90DF90CF900895C12CD12C84EB72
:103C8000E82E83E4F82EF2CFCF92DF92EF92FF92EC
:103C90000E94161E6B017C0180918E02882309F41C
:103CA00034C142E050E0C701B6010E94FB1683E335
:103CB00092E00E941D1660918D0570918E05809195
:103CC0008F059091900548E050E00E94FB1683E339
:103CD00092E00E941D16609191057091920580916D
:103CE00093059091940548E050E00E94FB1683E311
:103CF00092E00E941D166091950570919605809145
:103D000097059091980548E050E00E94FB1683E3E8
:103D100092E00E941D166091890570918A0580913C
:103D20008B0590918C0548E050E00E94FB1683E3E0
:103D300092E00E941D166091840570E090E080E0A2
:103D40004AE00E94D21583E392E00E941D16609122
:103D5000990570919A0580919B0590919C0548E08A
:103D600050E00E94FB1683E392E00E941D166091D2
:103D70009D0570919E0580919F059091A00548E05A
:103D800050E00E94FB1683E392E00E941D166091B2
:103D9000A1057091A2058091A3059091A40548E02A
:103DA00050E00E94FB1683E392E00E941D16609192
:103DB000A90570E090E080E048E00E94D21583E31E
:103DC00092E00E941D166091A5057091A605809154
:103DD000A7059091A80548E050E00E94FB1683E3F8
:103DE00092E00E941D168091AE0290E00E9416168D
:103DF00083E392E00E941D166091AA057091AB05C5
:103E00008091AC059091AD0542E050E00E94FB1618
:103E100083E392E00E941D168091A90290E00E9427
:103E2000161683E392E00E941D166091AE05709114
:103E3000AF058091B0059091B10542E050E00E943D
:103E4000FB1683E392E00E941D168091A40290E08D
:103E50000E94161683E392E00E941D166091B2053F
:103E60007091B3058091B4059091B50542E050E0A2
:103E70000E94FB1683E392E00E941D1680919F0230
:103E800090E00E94161683E392E00E941D16609156
:103E9000B6057091B7058091B8059091B90542E0DB
:103EA00050E00E94FB1683E392E00E941D16809171
:103EB000BA0290E00E94161683E392E00E941D165B
:103EC0008091B90290E00E94161683E392E00E946E
:103ED0001D166091B30270E090E080E04AE00E941D
:103EE000D21583E392E00E941D166091B60270E045
:103EF00090E080E04AE00E94D21583E392E0FF90D8
:103F0000EF90DF90CF900C94BC1886E392E00E9473
:103F10001D1642E050E0C701B6010E94FD168091D7
:103F20008E02882331F0FF90EF90DF90CF900C94B9
:103F30000B17FF90EF90DF90CF9008950E94161E10
:103F40006093AA057093AB058093AC059093AD0583
:103F500080E090E0A0E8BFE38093AF029093B002CE
:103F6000A093B102B093B2028093AA029093AB02E5
:103F7000A093AC02B093AD028093A5029093A602E9
:103F8000A093A702B093A8028093A0029093A102ED
:103F9000A093A202B093A30208950E94161E6093FC
:103FA000990570939A0580939B0590939C050895BD
:103FB0000E94161E60938D0570938E0580938F0569
:103FC0009093900508951F920F920FB60F921124AF
:103FD0002F933F934F935F936F937F938F939F9311
:103FE000AF93BF93EF93FF9383ED94E00E9447015B
:103FF000FF91EF91BF91AF919F918F917F916F91C1
:104000005F914F913F912F910F900FBE0F901F9096
:1040100018951F920F920FB60F9211242F938F9322
:104020009F93EF93FF93E091E304F091E404808188
:10403000E091E904F091EA0482FD1BC09081809137
:10404000EC048F5F8F732091ED04821741F0E091B3
:10405000EC04F0E0ED52FB4F958F8093EC04FF9160
:10406000EF919F918F912F910F900FBE0F901F9006
:1040700018958081F4CF1F920F920FB60F921124E2
:104080002F933F938F939F93AF93BF9380918A0217
:1040900090918B02A0918C02B0918D023091890297
:1040A00023E0230F2D3768F126E8230F0296A11D88
:1040B000B11D2093890280938A0290938B02A09372
:1040C0008C02B0938D028091850290918602A0911E
:1040D0008702B09188020196A11DB11D80938502CF
:1040E00090938602A0938702B0938802BF91AF910C
:1040F0009F918F913F912F910F900FBE0F901F9026
:1041000018950196A11DB11DD4CF1F920F920FB625
:104110000F9211248F939F9378948091C8048823E1
:10412000B1F01092CC041092CB041092C80480918C
:10413000BB029091BC0201969093BC028093BB029B
:104140009F918F910F900FBE0F901F9018958091A7
:10415000CB049091CC0401969093CC048093CB0433
:10416000E6CF1F920F920FB60F9211248F93EF9309
:10417000FF938091D004882321F01092CF041092F5
:10418000D004E091CF04F0E083B1ED53FD4F808384
:10419000E091CF04F0E089B1EB53FC4F8083809134
:1041A000CF048F5F8093CF04FF91EF918F910F9099
:1041B0000FBE0F901F901895CF93DF931092D604E7
:1041C0001092D50488EE93E0A0E0B0E08093D7048D
:1041D0009093D804A093D904B093DA0486E791E0D1
:1041E0009093D4048093D30485EC90E09093E00402
:1041F0008093DF0484EC90E09093E2048093E104E8
:1042000080EC90E09093E4048093E30481EC90E0F0
:104210009093E6048093E50482EC90E09093E804A8
:104220008093E70486EC90E09093EA048093E9049D
:104230001092EC041092ED041092EE041092EF0430
:1042400088E891E0909371058093700581E08093F8
:1042500072051092750510927605109277051092EE
:104260007805109279058093840510928905109243
:104270008A0510928B0510928C0510928D05109274
:104280008E0510928F051092900510929105109254
:104290009205109293051092940510929505109234
:1042A0009605109297051092980510929905109214
:1042B0009A0510929B0510929C0510929D051092F4
:1042C0009E0510929F051092A0051092A1051092D4
:1042D000A2051092A3051092A40540E050E068ECFE
:1042E00072E44093A5055093A6056093A7057093CB
:1042F000A8058093A9051092AA051092AB0510920B
:10430000AC051092AD051092AE051092AF0510925B
:10431000B0051092B1051092B2051092B30510923B
:10432000B4051092B5051092B6051092B70510921B
:10433000B8051092B9051092BA051092BB051092FB
:10434000BC051092BD0581E28093BE058AE090E035
:1043500090937B0580937A0510927D0510927C05E1
:1043600010927F0510927E051092810510928005B3
:1043700010928305109282059093740580937305C3
:104380008EE190E00E94B22B909386058093850584
:1043900030E020E004C08091850590918605820F71
:1043A000931FFC0110822F5F3F4FC0917305D09186
:1043B0007405CE01880F991FAC014C0F5D1F2417A7
:1043C000350748F3C115F0E4DF07E0F40E94B22B93
:1043D0008093870590938805209749F0FC0190E031
:1043E00080E0819391930196C817D907D1F761E0D6
:1043F00080E795E00E940B1081E080937905DF91C2
:10440000CF9108958FEF9FEF0E94B22B8093870585
:1044100090938805E3CF0E945F0261E080E10E94F3
:104420002E0261E08FE00E942E0261E08EE00E9489
:104430002E0260E082E00E942E0260E083E00E9493
:104440002E0260E084E00E942E0260E085E00E947F
:104450002E0260E086E00E942E0260E087E00E946B
:104460002E0260E088E00E942E0260E089E00E9457
:104470002E0260E080E10E94D80160E08FE00E949F
:10448000D80180916900836080936900E89A109256
:10449000B0001092B1008091B00082608093B000B3
:1044A0008091B10087608093B10089EF8093B30061
:1044B000809170008260809370001092CF041092FF
:1044C000CC041092CB041092CE041092C704109228
:1044D000CD0481E08093D0048093C804E091E3048C
:1044E000F091E40482E08083E091DF04F091E00445
:1044F0001082E091E104F091E20480E18083109267
:10450000EB04E091E704F091E80486E08083E09119
:10451000E504F091E604808180618083E091E50408
:10452000F091E604808188608083E091E504F09159
:10453000E604808180688083E091E504F091E604E0
:1045400080818F7D80838DE392E00E94BC1883E59B
:1045500092E00E94BC1861E080E795E00E940B1099
:1045600080E090E0A4EBB3E480939B0290939C02E4
:10457000A0939D02B0939E0280E090E0A8ECB2E48C
:104580008093970290939802A0939902B0939A0215
:104590001092930210929402109295021092960239
:1045A00010928F0210929002109291021092920239
:1045B000F8941092BE021092BD021092B8021092AE
:1045C000B7021092B5021092B4020E94BF0490E0AC
:1045D00080E00E9498278A3511F00E94811C6EE8C5
:1045E00072E080E190E00E94CA186AEB72E081E11B
:1045F00090E00E94CA1869EB72E082E190E00E94AC
:10460000CA1883E190E00E9498278093D10484E146
:1046100090E00E9498278093D20463EB72E085E1DA
:1046200090E00E94D41866EB72E086E190E00E9470
:10463000D4188091B30290E001969695982F882720
:10464000979587950E94041978948091BA028823DF
:1046500069F087E792E00E94BC188091B30290E075
:104660000E94931980E795E00E94BD0E86EA91E0D2
:104670000E94C5157724739472E0672E01E010E064
:10468000C12CD12CE0E8EE2EEFE3FE2E812C912CF4
:10469000F0E8AF2EFFEBBF2E78948091D00481110B
:1046A00036C08091CF04E091CE048E1781F17092D4
:1046B000CD0441E04E0F4093CE048091CB04909105
:1046C000CC0406962091C9043091CA04821793073E
:1046D00008F06CC27092C8048091C704811177C23F
:1046E000F0E0DF01AB53BC4F8C91ED53FD4F2081C7
:1046F00090E0959587959595879540E4249F900146
:104700001124822B833409F05BC27092C70480911C
:10471000CE048F3F31F41093C2020093C1020E9475
:1047200081058091C804811115C08091CD04882332
:1047300089F08091CB049091CC042091C9043091F0
:10474000CA042817390730F41093C2020093C1023B
:104750000E948105C091BD02D091BE028091BB0232
:104760009091BC02C817D90709F413C28091C10205
:104770009091C202009749F001969093C2028093F3
:10478000C10261E080E10E94D8018091C102909154
:10479000C2028D37910541F41092C2021092C102FB
:1047A00060E080E10E94D8012196D093BE02C093C0
:1047B000BD028091BA02882309F4EBC18091B9024D
:1047C000882389F08091B7029091B8022091D1049A
:1047D0003091D2048217930709F442C20196909354
:1047E000B8028093B7022091AF023091B00240919D
:1047F000B1025091B2026091AA057091AB0580910F
:10480000AC059091AD050E947F2920918D053091D6
:104810008E0540918F05509190050E94AF271B0196
:104820002C0120928D0530928E0540928F0550927A
:1048300090058091AE02882309F433C22FED3FEF3B
:1048400043EB53E4C201B1010E947A291816C4F463
:104850008092AF029092B002A092B102B092B202E6
:10486000A201910160E070E084E394E40E94AE272D
:1048700060938D0570938E0580938F0590939005BE
:1048800020908D0530908E0540908F0550909005BA
:1048900020E030E0A901C201B1010E941B2887FF7E
:1048A00014C0C092AF02D092B002E092B102F09276
:1048B000B20257FA509457F8509420928D053092D6
:1048C0008E0540928F05509290052091AA0230915A
:1048D000AB024091AC025091AD026091AE05709177
:1048E000AF058091B0059091B1050E947F2920917C
:1048F00091053091920540919305509194050E9445
:10490000AF271B012C012092910530929205409215
:104910009305509294058091A902882309F40DC251
:104920002DE73FEF47EC52E4C201B1010E947A2922
:104930001816C4F48092AA029092AB02A092AC0224
:10494000B092AD02A201910160E070E088E493E4CE
:104950000E94AE2760939105709392058093930512
:104960009093940520909105309092054090930586
:104970005090940520E030E0A901C201B1010E94ED
:104980001B2887FF14C0C092AA02D092AB02E0920B
:10499000AC02F092AD0257FA509457F8509420921E
:1049A0009105309292054092930550929405209182
:1049B000A5023091A6024091A7025091A8026091F1
:1049C000B2057091B3058091B4059091B5050E9430
:1049D0007F2920919505309196054091970550913A
:1049E00098050E94AF271B012C012092950530925B
:1049F000960540929705509298058091A4028823CD
:104A000009F4E7C12DE73FEF47EC52E4C201B101E1
:104A10000E947A291816C4F48092A5029092A602E8
:104A2000A092A702B092A802A201910160E070E0FA
:104A300088E493E40E94AE276093950570939605F1
:104A40008093970590939805209095053090960552
:104A5000409097055090980520E030E0A901C201F0
:104A6000B1010E941B2887FF14C0C092A502D092FA
:104A7000A602E092A702F092A80257FA509457F8C3
:104A80005094209295053092960540929705509249
:104A900098052091A0023091A1024091A20250916C
:104AA000A3026091B6057091B7058091B805909109
:104AB000B9050E947F292091890530918A0540918E
:104AC0008B0550918C050E94AF271B012C01209271
:104AD000890530928A0540928B0550928C05809111
:104AE0009F02882309F4C1C12DE73FEF47EC52E450
:104AF000C201B1010E947A291816C4F48092A00262
:104B00009092A102A092A202B092A302A2019101EE
:104B100060E070E088E493E40E94AE27609389052A
:104B200070938A0580938B0590938C05209089055E
:104B300030908A0540908B0550908C0520E030E045
:104B4000A901C201B1010E941B2887FF14C0C092B5
:104B5000A002D092A102E092A202F092A30257FA20
:104B6000509457F850942092890530928A054092CB
:104B70008B0550928C058091D004811106C08091E4
:104B8000CF049091CE04981304C080E795E00E9472
:104B9000BD0E40E050E0452B09F47ECD0E9433016C
:104BA000882309F479CD0E94000076CD8091CB0452
:104BB0009091CC0406969093CA048093C9048CCD3E
:104BC0001093C2020093C1020E948105A0CD8130E2
:104BD000A1F5F0E0DF01AB53BC4F8C91ED53FD4FDD
:104BE000208190E0959587959595879550E4259F30
:104BF00090011124822B932B959587958F77992778
:104C00008497F4F68C9120818695869590E4299F6F
:104C100090011124822B90E0959587958093C00296
:104C20004093BF026092C704825B9E4FFC0180816B
:104C300081116DCD0E9491056ACD823009F0C0CFFF
:104C4000E091C002F0E0E25BFE4F80819091BF02F4
:104C5000890F9927991F4817190609F058CDEACFEF
:104C60001092B8021092B7028091B4029091B502EE
:104C70002091B6022817190671F48091B30290E0D2
:104C80009093B5028093B4028091B4029091B502E2
:104C90000E949319A8CD01969093B5028093B40217
:104CA000F3CF20E030E044EB53E4C201B1010E94B5
:104CB0007A291816C4F4C092AF02D092B002E092E2
:104CC000B102F092B20220E030E044EB53E4C201C2
:104CD000B1010E94AE2760938D0570938E0580937D
:104CE0008F059093900520908D0530908E05409013
:104CF0008F055090900520E030E0A901C201B1017C
:104D00000E941B2887FFE1CDC092AF02D092B00273
:104D1000E092B102F092B20220E030E044EB53E4C2
:104D2000C201B1010E94AF2760938D0570938E057B
:104D300080938F0590939005C8CD20E030E048EC3B
:104D400052E4C201B1010E947A291816C4F4C0923B
:104D5000AA02D092AB02E092AC02F092AD0220E047
:104D600030E048EC52E4C201B1010E94AE276093EA
:104D700091057093920580939305909394052090EC
:104D8000910530909205409093055090940520E055
:104D900030E0A901C201B1010E941B2887FF07CEA4
:104DA000C092AA02D092AB02E092AC02F092AD02A5
:104DB00020E030E048EC52E4C201B1010E94AF278C
:104DC0006093910570939205809393059093940559
:104DD000EECD20E030E048EC52E4C201B1010E9487
:104DE0007A291816C4F4C092A502D092A602E092C5
:104DF000A702F092A80220E030E048EC52E4C201A1
:104E0000B1010E94AE27609395057093960580933B
:104E100097059093980520909505309096054090C1
:104E200097055090980520E030E0A901C201B1013A
:104E30000E941B2887FF2DCEC092A502D092A60209
:104E4000E092A702F092A80220E030E048EC52E4A1
:104E5000C201B1010E94AF2760939505709396053A
:104E6000809397059093980514CE20E030E048ECAD
:104E700052E4C201B1010E947A291816C4F4C0920A
:104E8000A002D092A102E092A202F092A30220E03E
:104E900030E048EC52E4C201B1010E94AE276093B9
:104EA000890570938A0580938B0590938C052090DB
:104EB000890530908A0540908B0550908C0520E044
:104EC00030E0A901C201B1010E941B2887FF53CE27
:104ED000C092A002D092A102E092A202F092A3029C
:104EE00020E030E048EC52E4C201B1010E94AF275B
:104EF0006093890570938A0580938B0590938C0548
:104F00003ACE88E891E09093710580937005809186
:104F1000850590918605009711F00E944E2C809196
:104F2000870590918805009711F00C944E2C0895F8
:104F3000F999FECF92BD81BDF89A992780B5089561
:104F4000262FF999FECF1FBA92BD81BD20BD0FB6A5
:104F5000F894FA9AF99A0FBE019608955058BB2713
:104F6000AA270E94C6270C9440290E94322938F0B3
:104F70000E94392920F039F49F3F19F426F40C944B
:104F80002F290EF4E095E7FB0C942929E92F0E94C4
:104F9000512958F3BA17620773078407950720F061
:104FA00079F4A6F50C9473290EF4E0950B2EBA2F24
:104FB000A02D0B01B90190010C01CA01A00111241F
:104FC000FF27591B99F0593F50F4503E68F11A16CB
:104FD000F040A22F232F342F4427585FF3CF46955C
:104FE00037952795A795F0405395C9F77EF41F167E
:104FF000BA0B620B730B840BBAF09150A1F0FF0F48
:10500000BB1F661F771F881FC2F70EC0BA0F621F33
:10501000731F841F48F4879577956795B795F79523
:105020009E3F08F0B0CF9395880F08F09927EE0FB8
:105030009795879508950E94052908F481E00895C1
:105040000E9434280C9440290E94392958F00E946B
:10505000322940F029F45F3F29F00C94292951119D
:105060000C9474290C942F290E94512968F39923D8
:10507000B1F3552391F3951B550BBB27AA27621754
:105080007307840738F09F5F5F4F220F331F441F61
:10509000AA1FA9F335D00E2E3AF0E0E832D0915095
:1050A0005040E695001CCAF72BD0FE2F29D0660F82
:1050B000771F881FBB1F261737074807AB07B0E8C5
:1050C00009F0BB0B802DBF01FF2793585F4F3AF0CB
:1050D0009E3F510578F00C9429290C9474295F3F68
:1050E000E4F3983ED4F3869577956795B795F79551
:1050F0009F5FC9F7880F911D9695879597F9089539
:10510000E1E0660F771F881FBB1F621773078407D4
:10511000BA0720F0621B730B840BBA0BEE1F88F7E3
:10512000E09508950E9499286894B1110C9474290F
:1051300008950E94592988F09F5798F0B92F992710
:10514000B751B0F0E1F0660F771F881F991F1AF072
:10515000BA95C9F714C0B13091F00E947329B1E03B
:1051600008950C947329672F782F8827B85F39F03A
:10517000B93FCCF3869577956795B395D9F73EF40B
:1051800090958095709561957F4F8F4F9F4F0895B3
:10519000E89409C097FB3EF49095809570956195D1
:1051A0007F4F8F4F9F4F9923A9F0F92F96E9BB2787
:1051B0009395F695879577956795B795F111F8CF03
:1051C000FAF4BB0F11F460FF1BC06F5F7F4F8F4F6E
:1051D0009F4F16C0882311F096E911C0772321F064
:1051E0009EE8872F762F05C0662371F096E8862FFC
:1051F00070E060E02AF09A95660F771F881FDAF753
:10520000880F9695879597F90895990F0008550F7F
:10521000AA0BE0E8FEEF16161706E807F907C0F03C
:1052200012161306E407F50798F0621B730B840B44
:10523000950B39F40A2661F0232B242B252B21F41E
:1052400008950A2609F4A140A6958FEF811D811DBE
:10525000089597F99F6780E870E060E008959FEFF8
:1052600080EC089500240A941616170618060906FD
:10527000089500240A9412161306140605060895CC
:10528000092E0394000C11F4882352F0BB0F40F454
:10529000BF2B11F460FF04C06F5F7F4F8F4F9F4F94
:1052A000089557FD9058440F551F59F05F3F71F016
:1052B0004795880F97FB991F61F09F3F79F087957D
:1052C0000895121613061406551FF2CF4695F1DF06
:1052D00008C0161617061806991FF1CF8695710596
:1052E000610508940895E894BB2766277727CB01CA
:1052F00097F908950E94052908F48FEF08950E94F8
:1053000092290C9440290E94322938F00E943929B0
:1053100020F0952311F00C9429290C942F291124A5
:105320000C9474290E94512970F3959FC1F3950F35
:1053300050E0551F629FF001729FBB27F00DB11D19
:10534000639FAA27F00DB11DAA1F649F6627B00DA9
:10535000A11D661F829F2227B00DA11D621F739F92
:10536000B00DA11D621F839FA00D611D221F749FA0
:105370003327A00D611D231F849F600D211D822FE7
:10538000762F6A2F11249F5750409AF0F1F088230E
:105390004AF0EE0FFF1FBB1F661F771F881F91503B
:1053A0005040A9F79E3F510580F00C9429290C9498
:1053B00074295F3FE4F3983ED4F38695779567951B
:1053C000B795F795E7959F5FC1F7FE2B880F911D65
:1053D0009695879597F90895FA01EE0FFF1F30967D
:1053E00021053105A1F16115710561F48038BFE334
:1053F0009B0749F168949038810561F08038BFEFD0
:105400009B0741F099234AF5FF3FE105310521054E
:1054100019F1E8940894E795D901AA2329F4AB2F50
:10542000BE2FF85FD0F310C0FF5F70F4A695E0F7D1
:10543000F73950F019F0FF3A38F49F779F930DD069
:105440000F9007FC9058089546F00C942F2960E0C7
:1054500070E080E89FE308954FE79F775F934F9355
:105460003F932F930E94EC2A2F913F914F915F9190
:105470000E947F290C94492A0E940529880B990BC8
:10548000089529F416F00C9429290C9473290C948E
:105490002F290E945929A8F39638A0F707F80F92F0
:1054A000E8942BE33AEA48EB5FE70E9495290F92D4
:1054B0000F920F924DB75EB70F920E94342BE8E621
:1054C000F0E00E947B2A4F915F91EF91FF91E5956B
:1054D000EE1FFF1F49F0FE57E0684427EE0F441F00
:1054E000FA95E1F74195550B0E94AE2A0F9007FE01
:1054F0000C94A22A0895DF93CF931F930F93FF92EA
:10550000EF92DF927B018C01689406C0DA2EEF01E6
:105510000E949229FE01E894A5912591359145912B
:105520005591A6F3EF010E94C627FE019701A8013D
:10553000DA9469F7DF90EF90FF900F911F91CF9170
:10554000DF9108959B01AC0160E070E080E89FE38B
:105550000C9420280C9429290C94682B0E9459291A
:10556000D8F39923C9F3940F511DA3F391505040E0
:1055700094F059F0882332F0660F771F881F9150FE
:105580005040C1F79E3F51052CF7880F911D96950D
:10559000879597F908955F3FACF0983E9CF0BB2744
:1055A000869577956795B79508F4B1609395C1F79F
:1055B000BB0F58F711F460FFE8CF6F5F7F4F8F4F3D
:1055C0009F4FE3CF0C94742916F00C94682B0C9425
:1055D0002F2968940C9429290E945929A8F399230A
:1055E000C1F3AEF3DF93CF931F930F93FF92C92FB5
:1055F000DD2788232AF02197660F771F881FDAF7A7
:1056000020E030E040E85FEB9FE3883920F0803E07
:1056100038F021968F770E94AF27E0E9F0E004C0D0
:105620000E94AF27EDEBF0E00E947B2A8B01BE01C8
:10563000EC01FB2E6F5771097595771F880B990B3D
:105640000E94CA2828E132E741E35FE30E949229E1
:10565000AF2D9801AE01FF900F911F91CF91DF9177
:105660000E94C6270C944029FA01DC01AA0FBB1F37
:105670009B01AC01BF5728F42227332744275078D9
:1056800020C0B75190F4AB2F00244695379527954D
:10569000011CA395D2F3002071F0220F331F441F89
:1056A000B395DAF30ED00C94AE2761307105A0E803
:1056B0008A07B94630F49B01AC0166277727882713
:1056C0009078309621F0208331834283538308956C
:1056D0009F3F31F0915020F4879577956795B79566
:1056E000880F911D9695879597F90895AA1BBB1B66
:1056F00051E107C0AA1FBB1FA617B70710F0A61BD2
:10570000B70B881F991F5A95A9F780959095BC01F2
:10571000CD010895A1E21A2EAA1BBB1BFD010DC0ED
:10572000AA1FBB1FEE1FFF1FA217B307E407F50751
:1057300020F0A21BB30BE40BF50B661F771F881F2D
:10574000991F1A9469F760957095809590959B01C3
:10575000AC01BD01CF010895EE0FFF1F0590F4913C
:10576000E02D09940F931F93CF93DF93823091051F
:1057700010F482E090E0E091C105F091C20530E0C4
:1057800020E0B0E0A0E0309799F42115310509F44C
:105790004AC0281B390B24303105D8F58A819B81FA
:1057A0006115710589F1FB0193838283FE0111C0AC
:1057B000408151810281138148175907E0F0481751
:1057C000590799F4109761F012960C93129713965B
:1057D0001C933296CF01DF91CF911F910F910895C5
:1057E0000093C1051093C205F4CF2115310551F086
:1057F0004217530738F0A901DB019A01BD01DF010F
:10580000F801C1CFEF01F9CF9093C2058093C10594
:10581000CDCFFE01E20FF31F819391932250310906
:1058200039832883D7CF2091BF053091C005232B22
:1058300041F420910201309103013093C00520937F
:10584000BF0520910001309101012115310541F47E
:105850002DB73EB74091040150910501241B350B33
:10586000E091BF05F091C005E217F307A0F42E1BED
:105870003F0B2817390778F0AC014E5F5F4F2417B4
:10588000350748F04E0F5F1F5093C0054093BF058A
:10589000819391939FCFF0E0E0E09CCFCF93DF9393
:1058A0000097E9F0FC01329713821282A091C105A2
:1058B000B091C205ED0130E020E01097A1F4208105
:1058C0003181820F931F2091BF053091C0052817A9
:1058D000390709F061C0F093C005E093BF05DF917F
:1058E000CF910895EA01CE17DF07E8F54A815B8181
:1058F0009E0141155105B1F7E901FB83EA83499106
:105900005991C40FD51FEC17FD0761F48081918177
:105910000296840F951FE901998388838281938180
:105920009B838A83F0E0E0E012968D919C9113971F
:105930000097B9F52D913C911197CD010296820FF8
:10594000931F2091BF053091C0052817390739F6FC
:10595000309751F51092C2051092C105B093C00561
:10596000A093BF05BCCFD383C28340815181840FF4
:10597000951FC817D90761F44E5F5F4F88819981E1
:10598000480F591F518340838A819B81938382836F
:105990002115310509F0B0CFF093C205E093C105A0
:1059A0009ECFFD01DC01C0CF13821282D7CF10E061
:1059B000CEE9D0E004C0FE010E94AC2B2196CF3985
:0859C000D107C9F7F894FFCFED
:1059C8000000C3058000571B5D1007108A045004AF
:1059D800BE1C451A441E9C06D81F0B1E001ECD1F58
:1059E8003304800357039E1FD41DC91DBE1D280301
:1059F800F902CA029B02F51DEA1DDF1D5B1C6D1929
:105A08009F1B8F031D15A5179A028D14A81301005B
:105A1800000101000308030808080801000008083D
:105A28000808010101010808080101000104050036
:105A38001E28000000006901C900F600B80127010E
:105A480005011901000000000B104613C512BA0B1E
:105A5800080BDD091F08BD0ED9066E616E00696E60
:105A680066006F7666000D0A00636C5F615F656EA5
:105A780061626C65203A0A636F6C6F724368616E8D
:105A88006765206875652000207C2073617420009C
:105A9800207C2076616C2000207C20706F732000B1
:105AA800636F6C6F72206875652000636F6C6F722E
:105AB8005061747465726E20687565200055736551
:105AC80072204465627567206D6F6465204F464695
