:100000000C9495000C94221D0C94BD000C94BD0022
:100010000C94BD000C94BD000C94BD000C94BD006C
:100020000C94BD000C94B01C0C94BD000C94BD004D
:100030000C94BD000C94BD000C94BD000C94BD004C
:100040000C94661C0C94BD000C94341C0C940E1C77
:100050000C94BD000C94BD000C94BD000C94BD002C
:100060000C94BD000C94BD0007634236B79BD8A723
:100070001A39685618AEBAAB558C1D3CB7CC5763CD
:10008000BD6DEDFD753EF6177231BF000000803F7B
:1000900008000000BE922449123EABAAAA2ABECD97
:1000A000CCCC4C3E00000080BEABAAAAAA3E000009
:1000B0000000BF000000803F000000000008417801
:1000C000D3BB4387D1133D190E3CC3BD4282AD2B38
:1000D0003E68EC8276BED98FE1A93E4C80EFFFBE30
:1000E00001C4FF7F3F000000000000000000250069
:1000F00028002B0000000000240027002A00040430
:1001000004040404040402020202020203030303BF
:10011000030301020408102040800102040810209B
:10012000010204081020451D172411241FBECFEF23
:10013000D8E0DEBFCDBF12E0A0E0B1E0E4EAF8E530
:1001400002C005900D92A23CB107D9F726E0A2ECBF
:10015000B2E001C01D92AA30B207E1F710E0C4E995
:10016000D0E004C02197FE010E944228C339D10784
:10017000C9F70E946C1E0C94452C0C9400007894D6
:100180008091130590911405019690931405809326
:100190001305809105039091060301969093060341
:1001A000809305030895AF92BF92CF92DF92EF92B2
:1001B000FF920F931F93CF93DF936C017B018B0111
:1001C000040F151FEB015E01AE18BF08C017D10761
:1001D00059F06991D601ED91FC910190F081E02DEB
:1001E000C6010995892B79F7C501DF91CF911F9140
:1001F0000F91FF90EF90DF90CF90BF90AF90089558
:10020000FC01538D448D252F30E0842F90E0821B1C
:10021000930B541710F0CF96089501970895FC01A1
:10022000918D828D981761F0A28DAE0FBF2FB11DF9
:100230005D968C91928D9F5F9F73928F90E0089551
:100240008FEF9FEF0895FC01918D828D981731F00B
:10025000828DE80FF11D858D90E008958FEF9FEF5F
:100260000895FC01918D228D892F90E0805C9F4F35
:10027000821B91098F73992708958AE195E00E9466
:10028000310121E0892B09F420E0822F089580E0DC
:1002900090E0892B29F00E943D0181110C9400000F
:1002A0000895FC01A48DA80FB92FB11DA35ABF4F0B
:1002B0002C91848D90E001968F739927848FA68965
:1002C000B7892C93A089B1898C91837080648C93B9
:1002D000938D848D981306C00288F389E02D808168
:1002E0008F7D80830895EF92FF920F931F93CF939A
:1002F000DF93EC0181E0888F9B8D8C8D98131AC061
:10030000E889F989808185FF15C09FB7F894EE8947
:10031000FF896083E889F9898081837080648083A4
:100320009FBF81E090E0DF91CF911F910F91FF90EF
:10033000EF900895F62E0B8D10E00F5F1F4F0F7397
:100340001127E02E8C8D8E110CC00FB607FCFACF52
:10035000E889F989808185FFF5CFCE010E9451019E
:10036000F1CFEB8DEC0FFD2FF11DE35AFF4FF08223
:100370009FB7F8940B8FEA89FB8980818062CFCF89
:10038000CF93DF93EC01888D8823B9F0AA89BB89CC
:10039000E889F9898C9185FD03C0808186FD0DC0B7
:1003A0000FB607FCF7CF8C9185FFF2CF808185FFD8
:1003B000EDCFCE010E945101E9CFDF91CF91089599
:1003C000CF93DF9390E0FC01EE5EFE4F24918250CC
:1003D0009F4FFC0184918823D1F090E0880F991FF2
:1003E000FC01EC50FF4FA591B491FC01E651FF4F89
:1003F000C591D49161110EC09FB7F8948C91E22FF2
:10040000E0958E238C932881E223E8839FBFDF91C0
:10041000CF9108958FB7F894EC91E22BEC938FBFB6
:10042000F6CF20910A0330E0F901E25FFB4F8081B3
:10043000245F3C4FF901208190E095958795959533
:100440008795F0E42F9F90011124822B932B969592
:1004500087958F779927892B79F41092E90280E0AC
:1004600090E0A0E8BFE38093EA029093EB02A093B0
:10047000EC02B093ED02089581E08093E902EFCFA2
:1004800020910A0330E0F901E25FFB4F8081245F95
:100490003C4FF901208190E095958795959587953A
:1004A000F0E42F9F90011124822B932B9695879532
:1004B0008F779927892B79F41092EE0280E090E0F3
:1004C000A0E8BFE38093EF029093F002A093F102C3
:1004D000B093F202089581E08093EE02EFCF209175
:1004E0000A0330E0F901E25FFB4F8081245F3C4F5B
:1004F000F901208190E09595879595958795F0E491
:100500002F9F90011124822B932B969587958F779F
:100510009927892B79F41092F30280E090E0A0E80B
:10052000BFE38093F4029093F502A093F602B09398
:10053000F702089581E08093F302EFCF20910A0340
:1005400030E0F901E25FFB4F8081245F3C4FF9010D
:10055000208190E09595879595958795F0E42F9F5C
:1005600090011124822B932B969587958F7799274D
:10057000892B79F41092F80280E090E0A0E8BFE3C4
:100580008093F9029093FA02A093FB02B093FC02CD
:10059000089581E08093F802EFCF10920403109247
:1005A000030380E090E0A0E8BFE38093F90290931A
:1005B000FA02A093FB02B093FC028093F4029093A2
:1005C000F502A093F602B093F7028093EF029093A6
:1005D000F002A093F102B093F2028093EA029093AA
:1005E000EB02A093EC02B093ED02089581E08093BA
:1005F00004032091FD0290910003291718F0109236
:100600000303089580930303089520910A0330E0C3
:10061000F901E25FFB4F8081245F3C4FF9012081AB
:1006200090E09595879595958795F0E42F9F90019B
:100630001124822B932B969587958F779927892B59
:1006400009F445C010920403109203038091D4056D
:100650009091D505A091D605B091D7058093E5027C
:100660009093E602A093E702B093E8028091D80548
:100670009091D905A091DA05B091DB058093E10254
:100680009093E202A093E302B093E4028091DC0530
:100690009091DD05A091DE05B091DF058093DD022C
:1006A0009093DE02A093DF02B093E0028091D00528
:1006B0009091D105A091D205B091D3058093D90234
:1006C0009093DA02A093DB02B093DC02089580914C
:1006D000E5029091E602A091E702B091E8028093D2
:1006E000D4059093D505A093D605B093D7058091F6
:1006F000E1029091E202A091E302B091E4028093C2
:10070000D8059093D905A093DA05B093DB058091C5
:10071000DD029091DE02A091DF02B091E0028093B1
:10072000DC059093DD05A093DE05B093DF05809195
:10073000D9029091DA02A091DB02B091DC028093A1
:10074000D0059093D105A093D205B093D3050C9416
:10075000F60220910A0330E0F901E25FFB4F80814D
:10076000245F3C4FF901208190E095958795959500
:100770008795F0E42F9F90011124822B932B96955F
:1007800087958F7799278093F00508952F923F9250
:100790004F925F926F927F928F929F92AF92BF9291
:1007A000CF92DF92EF92FF920F931F93CF93DF933D
:1007B00080910A0390E0FC01E25FFB4FC081FC01E5
:1007C000E45FFC4F6081D0E0D595C795D595C7957E
:1007D00020E4629FB0011124C62BD72B9C012F5F10
:1007E0003F4FF901E25FFB4FE080245F3C4FF9018E
:1007F0006081F12CF594E794F594E794F0E46F9F11
:10080000B0011124E62A0296FC01E25FFB4F008151
:10081000845F9C4FFC01608110E01595079515954C
:100820000795F0E46F9FB0011124062B172B202EA3
:100830009E2C8C2E302E0E1508F43E2CAC2E8314DC
:1008400008F4A32CB02E921408F4BE2C8B1408F4D8
:10085000BC2E6A2D70E090E080E00E945E252B01A6
:100860003C0120E030E04FE753E40E94B62420E052
:1008700030E048EC52E40E9415266093DC0570934A
:10088000DD058093DE059093DF05CA2CD12CB601DF
:100890000D2C000C880B990B0E94602520E030E0A5
:1008A000A9010E94B1248823D1F1B6016B19710905
:1008B000072E000C880B990B0E946025A301920162
:1008C0000E94B62420E030E048EC52E40E94152655
:1008D0006093D8057093D9058093DA059093DB0572
:1008E000981026C0291024C01092D4051092D50566
:1008F0001092D6051092D705DF91CF911F910F91DD
:10090000FF90EF90DF90CF90BF90AF909F908F902F
:100910007F906F905F904F903F902F90089510922E
:10092000D8051092D9051092DA051092DB05D8CFC0
:10093000AA20D1F2B6016B197109072E000C880BA1
:10094000990B0E9460252B013C018314E8F08E2D49
:10095000801B990BBC01072E000C880B990B0E9481
:100960006025A30192010E94B62420E030E040E718
:1009700052E40E9415266093D4057093D5058093A8
:10098000D6059093D705B8CFDD279A1015C0B801CA
:1009900077276C1B7D0B072E000C880B990B0E9490
:1009A0006025A30192010E94B62420E030E040E0DF
:1009B00050E40E944524D9CFCE19D109BE01DD0FE4
:1009C000880B990B0E946025A30192010E94B62416
:1009D00020E030E040E850E4ECCF20910A0330E022
:1009E000F901E25FFB4F8081245F3C4FF9012081D8
:1009F00090E09595879595958795F0E42F9F9001C8
:100A00001124822B932B959587958F7799270097A3
:100A100019F41092CB0508958130910521F481E0FD
:100A20008093CB0508958230910511F482E0F8CFD0
:100A30008330910511F483E0F3CF049799F784E0B4
:100A4000EFCF80910A0390E0FC01E25FFB4F6081F1
:100A5000845F9C4FFC01808170E07595679575956A
:100A60006795F0E48F9FC0011124682B792B759551
:100A700067956F777727072E000C880B990B0E94DC
:100A8000602520E030E040E251E40E94152620E09D
:100A900030E040EA50E40E9445246093D005709312
:100AA000D1058093D2059093D30508951092090340
:100AB00081E792E090931905809318051092FD024A
:100AC00084E0809300031092FF021092FE021092C5
:100AD000F8021092F3021092EE021092E90280E006
:100AE00090E0A0E8BFE38093F9029093FA02A0930C
:100AF000FB02B093FC028093F4029093F502A09362
:100B0000F602B093F7028093EF029093F002A09365
:100B1000F102B093F2028093EA029093EB02A09369
:100B2000EC02B093ED02E7EBF5E082AF93AFA4AF38
:100B3000B5AF1092F5051092F6051092F7051092D8
:100B4000F8054AE057ED63E27CE34093F9055093E2
:100B5000FA056093FB057093FC058093FD05909367
:100B6000FE05A093FF05B093000681E08093040387
:100B700080930303118E128E138E148E81AF158E07
:100B8000168E178E10A240E050E068EC72E441A38C
:100B900052A363A374A345A356A367A370A740E021
:100BA00050E064EB73E441A752A763A774A715A6AE
:100BB00016A617A610AA11AA12AA13AA14AA848B01
:100BC0000895AC010196FC01E25FFB4F2081845F38
:100BD0009C4FFC016081FA01E25FFB4F9081445F12
:100BE0005C4FFA01408130E0359527953595279582
:100BF000F0E46F9FB0011124262B372B56E0220F13
:100C0000331F5A95E1F720783F73892F90E095952F
:100C100087959595879560E4469FA0011124842BC4
:100C2000952B969587958F779927822B932B0895EF
:100C3000F8949091170580911605981304C01092AE
:100C4000170510921605109215051092100578944C
:100C50000895E0910B03F0E0EE0FFF1FEA5FFE4FF7
:100C60000190F081E02D09950C941806CF92DF9247
:100C7000EF92FF92CF93DF93EC012AAD3BAD4CADE9
:100C80005DAD6D8D7E8D8F8D98A10E9445246B0189
:100C90007C0120E030E044EB53E40E94102618165B
:100CA0000CF4EDC0CD8EDE8EEF8EF8A2CD8CDE8CF6
:100CB000EF8CF8A020E030E0A901C701B6010E9446
:100CC000B12487FF0CC020E030E044EB53E4C701BF
:100CD000B6010E9445246D8F7E8F8F8F98A3FE01F1
:100CE000FE96208131814281538169A17AA18BA135
:100CF0009CA10E9445246B017C0120E030E048EC7F
:100D000052E40E94102618160CF4C6C0C9A2DAA23A
:100D1000EBA2FCA2C9A0DAA0EBA0FCA020E030E08E
:100D2000A901C701B6010E94B12487FF0CC020E0D1
:100D300030E048EC52E4C701B6010E94452469A3A3
:100D40007AA38BA39CA3FE01EE5BFF4F2081318130
:100D5000428153816DA17EA18FA198A50E94452457
:100D60006B017C0120E030E048EC52E40E94102648
:100D700018160CF49EC0CDA2DEA2EFA2F8A6CDA05C
:100D8000DEA0EFA0F8A420E030E0A901C701B60181
:100D90000E94B12487FF0CC020E030E048EC52E410
:100DA000C701B6010E9445246DA37EA38FA398A717
:100DB000FE01EA5BFF4F2081318142815381698DC1
:100DC0007A8D8B8D9C8D0E9445246B017C0120E0E7
:100DD00030E048EC52E40E94102618160CF476C05D
:100DE000C98EDA8EEB8EFC8EC98CDA8CEB8CFC8C87
:100DF00020E030E0A901C701B6010E94B12487FFBD
:100E00000CC020E030E048EC52E4C701B6010E947B
:100E10004524698F7A8F8B8F9C8FFE01E65BFF4F95
:100E200020813181428153816DA97EA98FA998AD1E
:100E30000E9445246B017C0120E030E048EC52E444
:100E40000E94102618160CF44EC0CDAADEAAEFAAF6
:100E5000F8AE20E030E0A9016DA97EA98FA998AD78
:100E60000E94B12487FF04C01DAA1EAA1FAA18AEA3
:100E7000DF91CF91FF90EF90DF90CF90089520E029
:100E800030E044EB53E4C701B6010E9444246D8F67
:100E90007E8F8F8F98A30ACF20E030E048EC52E499
:100EA000C701B6010E94442469A37AA38BA39CA323
:100EB00031CF20E030E048EC52E4C701B6010E9497
:100EC00044246DA37EA38FA398A759CF20E030E0E0
:100ED00048EC52E4C701B6010E944424698F7A8F1E
:100EE0008B8F9C8F81CF80E090E0A8ECB2E48DAB3B
:100EF0009EABAFABB8AFADCF2F923F924F925F9208
:100F00006F927F928F929F92AF92BF92CF92DF9219
:100F1000EF92FF920F931F93CF93DF93CDB7DEB77E
:100F2000AF970FB6F894DEBF0FBECDBF1C01CD86C4
:100F3000DE86EF86F88A098B1A8B2B8B3C8B4D8BC8
:100F40005E8B6F8B788F2401350120E030E0A901A2
:100F500029966CAD7DAD8EAD9FAD29970E94B124D1
:100F600087FD69C120E030E048EC52E429966CAD81
:100F70007DAD8EAD9FAD29970E94102618160CF4FA
:100F80005AC120E030E0A901C301B2010E94B1249E
:100F900087FF0BC020E030E048EC52E4C301B2010F
:100FA0000E9445242B013C01ECCF20E030E048ECCE
:100FB00052E4C301B2010E94102687FD0BC020E05D
:100FC00030E048EC52E4C301B2010E9444242B01FA
:100FD0003C01EBCF8D899E89AF89B88D8A8F9B8F1D
:100FE000AC8FBD8F25968FAD2597882319F1D10140
:100FF000ED91FC910480F581E02D19821A821B820B
:101000001C821D821E821F82188619861A861B86E4
:101010001C86812C912C5401C12CDA80EB80FC8041
:1010200000E01E812F81388540E05A856B857C85E4
:10103000C101099520E030E048EC52E429966CADFE
:101040007DAD8EAD9FAD29970E94B6242A8D3B8D34
:101050004C8D5D8D0E9415266E8F7DA78EA79FA754
:10106000198E2A969FAD2A97892F90E0B0E0A0E0D4
:1010700089A79AA7ABA7BCA7A98D2A96BFAD2A9727
:10108000AB1709F4D8C06A2F70E090E080E00E94AE
:101090005E2520E030E048EC52E40E9415266B010A
:1010A0007C0169A57AA58BA59CA50E945E259B0164
:1010B000AC01C701B6010E94B624A30192010E94AF
:1010C00045246B017C0120E030E0A9010E94B1249D
:1010D00087FF11C020E030E048EC52E4C701B601C0
:1010E000EECF20E030E048EC52E4C701B6010E94A8
:1010F00044246B017C0120E030E048EC52E4C7015D
:10110000B6010E94102687FFECCFF1010380F48125
:10111000E02DFB8FEA8F10E000E0FFEFFBA32FEF45
:101120002CA31F8E18A288EC89A392E49AA3AA8DFF
:10113000BB8DCD01B0E0A0E08DA39EA3AFA3B8A767
:10114000EA8DFB8DE017F10709F453C0B80190E078
:1011500080E00E945E254B015C016DA17EA18FA104
:1011600098A50E945E259B01AC01C501B4010E94B7
:10117000B62420E030E048EC52E40E9415264B01F2
:101180005C01AC019B01C701B6010E94B12487FF3D
:101190000AC020E030E048EC52E4C701B6010E94EA
:1011A00045246B017C01A5019401C701B6010E9491
:1011B00044244B015C0120E030E0A9010E94B124ED
:1011C00087FF04C0B7FAB094B7F8B094A5019401B2
:1011D0006F8D78A189A19AA10E941026181634F467
:1011E0000BA31CA38F8E98A2A9A2BAA20F5F1F4FB8
:1011F000A7CFD101ED91FC910280F381E02D2E8DDE
:10120000822F9DA5AEA5BFA58D8B9E8BAF8BB88F72
:10121000AD84BE84CF84D888E988FA880B891C897C
:101220003E894F89588D6BA17CA1C1010995B98D6B
:10123000BF5FB98F21CFAF960FB6F894DEBF0FBE58
:10124000CDBFDF91CF911F910F91FF90EF90DF9075
:10125000CF90BF90AF909F908F907F906F905F9056
:101260004F903F902F9008952F923F924F925F9210
:101270006F927F928F929F92AF92BF92CF92DF92A6
:10128000EF92FF920F931F93CF93DF93CDB7DEB70B
:1012900069970FB6F894DEBF0FBECDBF4C01C9826F
:1012A000DA82EB82FC820D831E832F833887498785
:1012B0005A876B877C8723968FAD23978D872496DB
:1012C0009FAD24979E872596AFAD2597AF8726962D
:1012D0002FAC2697B12C27969FAD2797892F90E0AA
:1012E000B0E0A0E08A8B9B8BAC8BBD8B22968CAD43
:1012F0009DADAEADBFAD2297B0588E8B9F8BA88FA2
:10130000B98F27969FAD2797B91609F4BFC06A8990
:101310007B898C899D890E945E252B013C016B2D68
:1013200070E090E080E00E945E2522962CAD3DADFD
:101330004EAD5FAD22970E941526A30192010E9437
:10134000B6242AAD3BAD4CAD5DAD0E944524A62E22
:10135000788B898B392ED4010D911C911F921F928D
:101360001F921F922F92BF85BF93EE85EF93FD854D
:10137000FF9320E030E040E05FE322966CAD7DAD6E
:101380008EAD9FAD22970E941526A30192010E9467
:10139000B6249F938F937F936F933F9289898F9306
:1013A00098899F93AF92ADB7BEB71C970FB6F894CC
:1013B000BEBF0FBEADBF11968CE0FE01BE96019080
:1013C0000D928A95E1F7D8011696ED91FC91C980AE
:1013D000DA80EB80FC800D811E812F813885498564
:1013E0005A856B857C85C4010995F40100811181C2
:1013F0001F921F921F921F922F92FF85FF938E853F
:101400008F939D859F9320E030E040E05FE36E89FD
:101410007F89888D998D0E941526A30192010E94D3
:10142000B6249F938F937F936F933F92A989AF9335
:10143000B889BF93AF92EDB7FEB73C970FB6F8945B
:10144000FEBF0FBEEDBFADB7BEB711968CE0FE017B
:10145000BE9601900D928A95E1F7D8011696ED910E
:10146000FC91C980DA80EB80FC800D811E812F8188
:10147000388549855A856B857C85C4010995B39467
:101480000FB6F894DEBF0FBECDBF3BCF69960FB647
:10149000F894DEBF0FBECDBFDF91CF911F910F91AA
:1014A000FF90EF90DF90CF90BF90AF909F908F9084
:1014B0007F906F905F904F903F902F9008952F9264
:1014C0003F924F925F926F927F928F929F92AF92D4
:1014D000BF92CF92DF92EF92FF920F931F93CF9321
:1014E000DF93CDB7DEB72D970FB6F894DEBF0FBEF2
:1014F000CDBF4C01C982DA82EB82FC820D831E8350
:101500002F83388749875A876B877C878EA98D8779
:101510006FA8A8AC79ACB12C9AAD292E312C512CE6
:10152000412CAAADBA1609F463C0C201B1010E94F0
:101530005E256B017C01F401008111811F921F92D5
:101540001F921F927F92AF926F92FD85FF93AC0125
:101550009B016AA97BA98CA99DA90E94B6249F938F
:101560008F937F936F936B2D70E090E080E00E94EB
:101570005E252AA93BA94CA95DA90E941526A701B1
:1015800096010E94B6242EA53FA548A959A90E94FC
:1015900045249F938F937F936F938DB79EB70C973E
:1015A0000FB6F8949EBF0FBE8DBFADB7BEB71196F4
:1015B0008CE0FE01B29601900D928A95E1F7D80178
:1015C0001696ED91FC91C980DA80EB80FC800D814C
:1015D0001E812F81388549855A856B857C85C4019C
:1015E0000995B3940FB6F894DEBF0FBECDBF99CF67
:1015F0002D960FB6F894DEBF0FBECDBFDF91CF9111
:101600001F910F91FF90EF90DF90CF90BF90AF9020
:101610009F908F907F906F905F904F903F902F9012
:1016200008952F923F924F925F926F927F928F9286
:101630009F92AF92BF92CF92DF92EF92FF920F9361
:101640001F93CF93DF93CDB7DEB7A3970FB6F89470
:10165000DEBF0FBECDBF9C8F8B8FCD86DE86EF8623
:10166000F88A098B1A8B2B8B3C8B4D8B5E8B6F8B87
:10167000788F28964CAC5DAC6EAC7FAC289720E0A0
:1016800030E048EC52EC2C966CAD7DAD8EAD9FAD4C
:101690002C970E94B12487FD5BC220E030E048EC2B
:1016A00052E42C966CAD7DAD8EAD9FAD2C970E9413
:1016B000102618160CF44CC220E030E0A901609608
:1016C0006CAD7DAD8EAD9FAD60970E94B12487FD5E
:1016D0003FC220E030E048EC52E460966CAD7DAD56
:1016E0008EAD9FAD60970E94102618160CF430C284
:1016F000AB8DBC8D13960D911C916296EEADFFAD36
:101700006297E017F10708F023C2CF0164962EAD6F
:101710003FAD6497820F931F0817190708F418C28A
:1017200020E030E0A901C301B2010E94B12487FF8B
:101730000BC020E030E048EC52E4C301B2010E944B
:1017400045242B013C01ECCF20E030E048EC52E492
:10175000C301B2010E94102618165CF420E030E0AC
:1017600048EC52E4C301B2010E9444242B013C0125
:10177000EBCF64968EAD9FAD6497892B21F4649670
:101780001FAF0EAF64971A8E198E6496AEADBFADC3
:101790006497CD01B0E0A0E08F8F98A3A9A3BAA36E
:1017A0006496EEADFFAD6497298D3A8DE217F3078D
:1017B00009F4CEC1B90190E080E00E945E256B0182
:1017C0007C016F8D78A189A19AA10E945E259B0161
:1017D000AC01C701B6010E94B62420E030E048EC1D
:1017E00052E40E9415266B017C012C962CAD3DAD78
:1017F0004EAD5FAD2C97C301B2010E9445244B0151
:101800005C0120E030E048EC52E40E9410261816FB
:1018100094F4A7019601C301B2010E941026181684
:1018200054F420E030E048EC52E4C701B6010E94D5
:1018300045246B017C0120E030E0A901C501B40121
:101840000E94B12487FF12C0A7019601C301B20113
:101850000E94B12487FF0AC020E030E048EC52E447
:10186000C701B6010E9444246B017C0120E030E0F6
:10187000A9012C966CAD7DAD8EAD9FAD2C970E94CD
:1018800010261816BCF4A7019601C301B2010E94EC
:101890001026181644F0A5019401C701B6010E9454
:1018A000102687FD24C0298D3A8D2F5F3F4F3A8F38
:1018B000298F76CF20E030E0A9012C966CAD7DAD6C
:1018C0008EAD9FAD2C970E94B12487FF41C1A70127
:1018D0009601C301B2010E94B124181624F7A50194
:1018E0009401C701B6010E94B12487FDDCCFA3019A
:1018F0009201C701B6010E9444246B017C0128AD0E
:1019000039AD4AAD5BAD0E9415262C962CAD3DAD90
:101910004EAD5FAD2C970E94B6242D853E854F8538
:1019200058890E944524062F272E382EA92E2CAD2B
:101930003DAD4EAD5FADC701B6010E9415262C9698
:101940002CAD3DAD4EAD5FAD2C970E94B6242989DC
:101950003A894B895C890E944524162F872E982E40
:10196000B92E24962CAD3DAD4EAD5FAD2497C70189
:10197000B6010E9415262C962CAD3DAD4EAD5FAD47
:101980002C970E94B6242D893E894F89588D0E943C
:1019900045246B017C0120E030E0A901602F722D0D
:1019A000832D9A2D0E94B12487FF0FC020E030E0E4
:1019B00044EB53E4602F722D832D9A2D0E94452411
:1019C000062F272E382EA92EE6CF20E030E044EB5C
:1019D00053E4602F722D832D9A2D0E941026181625
:1019E0007CF420E030E044EB53E4602F722D832D33
:1019F0009A2D0E944424062F272E382EA92EE5CF9B
:101A000020E030E0A901612F782D892D9B2D0E94C7
:101A1000B12487FF0FC020E030E048EC52E4612F92
:101A2000782D892D9B2D0E944524162F872E982EC8
:101A3000B92EE6CF20E030E048EC52E4612F782D5B
:101A4000892D9B2D0E94102618167CF420E030E092
:101A500048EC52E4612F782D892D9B2D0E9444245F
:101A6000162F872E982EB92EE5CF20E030E0A90161
:101A7000C701B6010E94B12487FF0BC020E030E00F
:101A800048EC52E4C701B6010E9445246B017C0179
:101A9000ECCF20E030E048EC52E4C701B6010E94F0
:101AA000102618165CF420E030E048EC52E4C70140
:101AB000B6010E9444246B017C01EBCFAB8DBC8D41
:101AC000ED91FC91228133813E8F2D8F0BA3802FCE
:101AD000922DA32DBA2D89839A83AB83BC83812F4A
:101AE000982DA92DBB2D8D839E83AF83B88720E0D1
:101AF00030E048EC52E460966CAD7DAD8EAD9FADAC
:101B000060970E94B624A70196010E941526262FF1
:101B1000462F572FBC0149875A876B877C87698D71
:101B20007A8D62968EAD9FAD6297680F791FABA0DC
:101B3000BA80CB80DC80E12EFE800F8118853A854B
:101B40004B855C858B8D9C8DED8DFE8D0995ABCE87
:101B5000A3960FB6F894DEBF0FBECDBFDF91CF9135
:101B60001F910F91FF90EF90DF90CF90BF90AF90BB
:101B70009F908F907F906F905F904F903F902F90AD
:101B80000895DC0121153105F1F0240F351FF8947B
:101B90004F5F5F4F5596ED91FC915697E40FF51FFF
:101BA0003197808190E8792F7823969568B97111E3
:101BB00022C00000000018B891110FC0241735078B
:101BC00039F77894089513968D919C9114979C0100
:101BD000220F331F280F391FDACF0000000000004A
:101BE00000000000000000000000000000000000F5
:101BF00000000000D8CF000000000000000000003E
:101C000000000000000000000000000000000000D4
:101C10000000000000000000000018B89111C3CFC0
:101C2000CDCF8F929F92AF92BF92CF92DF92EF92E1
:101C3000FF920F931F93CF93DF93EC018C89823037
:101C400009F4BFC008F046C0882309F45BC08130A6
:101C500009F470C08985882309F424C18E015E01CE
:101C6000FAE0AF0EB11CD12CC12CFF24F3946A8191
:101C70006F21C9F0D8011A968D919C91009799F027
:101C80009C01220F331F280F391FA601CE010E948D
:101C9000C10DF80122853385C901880F991F820F74
:101CA000931FC80ED91EFF0C0E5F1F4FA016B10662
:101CB000F1F683E795E00197F1F7DF91CF911F915E
:101CC0000F91FF90EF90DF90CF90BF90AF909F90DB
:101CD0008F900895833009F4BBC0843009F0BACFE7
:101CE000898C9A8CAB8CBC8CE881F98189AD8F93FF
:101CF00088AD8F938FA98F938EA98F938DA98F9382
:101D00001F92B8C08DA89EA8AFA8B8ACE881F98191
:101D10000480F581E02DCD8CDE8CEF8CF8A009A13C
:101D20001AA12BA13CA14DA15EA16FA178A5CE0166
:101D3000099590CF2881398189AD8F9388AD8F9394
:101D40008FA98F938EA98F938DA98F9382E48F9300
:101D500088EC8F931F921F928C8D8F938B8D8F9316
:101D60008A8D8F93898D8F938DB79EB70C970FB601
:101D7000F8949EBF0FBE8DBFADB7BEB711968CE075
:101D8000FE01B99601900D928A95E1F7D901189656
:101D9000ED91FC91CD8CDE8CEF8CF8A009A11AA1FD
:101DA0002BA13CA14DA15EA16FA178A5CE01099503
:101DB000EDB7FEB779960FB6F894FEBF0FBEEDBF34
:101DC00049CF2881398189AD8F9388AD8F938FA9B1
:101DD0008F938EA98F938DA98F9382E48F9388EC34
:101DE0008F931F921F928C8D8F938B8D8F938A8DE3
:101DF0008F93898D8F938DB79EB70C970FB6F894FC
:101E00009EBF0FBE8DBFADB7BEB711968CE0FE0171
:101E1000B99601900D928A95E1F7D9011A96ED9144
:101E2000FC91CD8CDE8CEF8CF8A009A11AA12BA11E
:101E30003CA14DA15EA16FA178A5CE010995EDB79A
:101E4000FEB779960FB6F894FEBF0FBEEDBF02CF76
:101E5000898C9A8CAB8CBC8CE881F98189AD8F938D
:101E600088AD8F938FA98F938EA98F938DA98F9310
:101E700081E08F930484F585E02DCD8CDE8CEF8C92
:101E8000F8A009A11AA12BA13CA14DA15EA16FA1AF
:101E900078A5CE0109950F900F900F900F900F909D
:101EA0000F90D8CE30E020E050E040E06A81CE01D3
:101EB0000E94C10DFECE87EB95E00C94110ECF92DF
:101EC000DF92EF92FF921F93CF93DF93C7EBD5E0A2
:101ED0001C89CDA0DEA0EFA0F8A41C8A1DA21EA222
:101EE0001FA218A610920403109203031092FD0281
:101EF000109200031092FF021092FE0280E090E028
:101F0000A0E8BFE38093F9029093FA02A093FB024A
:101F1000B093FC028093F4029093F502A093F60232
:101F2000B093F7028093EF029093F002A093F10236
:101F3000B093F2028093EA029093EB02A093EC023A
:101F4000B093ED02CE010E94110E1C8BCDA2DEA239
:101F5000EFA2F8A6DF91CF911F91FF90EF90DF9055
:101F6000CF900895FC0181E0848B158E168E178E1C
:101F700010A280E090E0A8ECB2E481A392A3A3A316
:101F8000B4A385A396A3A7A3B0A711A612A613A6D0
:101F900014A615A616A617A610AA11AA12AA13AA65
:101FA00014AA12AE13AE14AE15AEDF01DE961D926A
:101FB0001D921D921C92139714961D921D921D92B4
:101FC0001C921397118E128E138E148E14961D92DE
:101FD0001D921D921C92139780E090E0DC01662315
:101FE00021F080E090E0A8ECB2E485AB96ABA7AB23
:101FF000B0AFDF01A65BBF4F1D921D921D921C92D8
:10200000139781E081AF08952F923F924F925F9294
:102010006F927F928F929F92AF92BF92CF92DF92F8
:10202000EF92FF920F931F93CF93DF9300D000D0D6
:10203000CDB7DEB77C01FC0100851185F285FC83FC
:10204000FC01F385FB83F70180809180A280B3803F
:1020500020E030E044EB53E4C501B4010E941026B7
:1020600087FD0EC020E030E044EB53E4C501B4012D
:102070000E944424F7016083718382839383E3CFBA
:10208000F701C480D580E680F78020E030E0A90128
:10209000C701B6010E941026181644F520E030E072
:1020A00040E752E4C501B4010E94B6242B013C0173
:1020B0000E9428255B01072E000C880B990B0E94BB
:1020C00060259B01AC01C301B2010E9444242B0195
:1020D0003C01F2E0AF16B10409F4E7C06CF4A114BE
:1020E000B104B9F1AA94AB2809F46CC06801EC8082
:1020F000FB80480157019EC0F4E0AF16B10409F41B
:1021000054C10CF414C1E5E0AE16B10479F720E037
:1021100030E048EC52E4C701B6010E94B6249B01AE
:10212000AC0160E070E080E89FE30E9444249801E5
:102130004C815B810E9415264B015C01A301920139
:10214000C701B6010E94152620E030E048EC52E4B9
:1021500027C0A301920160E070E080E89FE30E9445
:102160004424A70196010E94152620E030E048ECA7
:1021700052E40E94B6249B01AC0160E070E080E86C
:102180009FE30E94442498014C815B810E941526A4
:102190004B015C0120E030E048EC52E4C701B6019D
:1021A0000E94B6249B01AC0160E070E080E89FE3F0
:1021B0000E94442498014C815B810E9415266B018A
:1021C0007C0138C0A3019201C701B6010E94152607
:1021D00020E030E048EC52E40E94B6249B01AC01C0
:1021E00060E070E080E89FE30E94442498014C8105
:1021F0005B810E9415262B013C0120E030E048EC79
:1022000052E4C701B6010E94B6249B01AC0160E014
:1022100070E080E89FE30E94442498014C815B8138
:102220000E9415266B017C014801AC80BB808201B5
:102230006C827B8223E333E343E250E4B8018C8178
:102240009B810E9415260E942825698323E333E39E
:1022500043E250E4B401C5010E9415260E942825DE
:102260006A8323E333E343E250E4B601C7010E94EB
:1022700015260E942825862F69817A810F900F905C
:102280000F900F90DF91CF911F910F91FF90EF90E2
:10229000DF90CF90BF90AF909F908F907F906F9086
:1022A0005F904F903F902F90089520E030E048ECF1
:1022B00052E4C701B6010E94B6249B01AC0160E064
:1022C00070E080E89FE30E94442498014C815B8188
:1022D0000E9415261B0189839A83A301920160E065
:1022E00070E080E89FE30E944424A70196010E94C9
:1022F000152620E030E048EC52E40E94B6249B0111
:10230000AC0160E070E080E89FE30E944424980103
:102310004C815B810E9415266B017C014801AC80D9
:10232000BB808101F981FC838A818B8383CF20E08C
:1023300030E048EC52E4C701B6010E94B6249B018C
:10234000AC0160E070E080E89FE30E9444249801C3
:102350004C815B810E941526362E272E89839A8315
:10236000A3019201C701B6010E94152620E030E0CA
:1023700048EC52E40E94B6249B01AC0160E070E09E
:1023800080E89FE30E94442498014C815B810E9475
:1023900015264B015C016801EC80FB80032D122D9A
:1023A000E981EC83FA81FB8345CFA301920160E0D0
:1023B00070E080E89FE30E944424A70196010E94F8
:1023C000152620E030E048EC52E40E94B6249B0140
:1023D000AC0160E070E080E89FE30E944424980133
:1023E0004C815B810E9415263B01582E492E20E02E
:1023F00030E048EC52E4C701B6010E94B6249B01CC
:10240000AC0160E070E080E89FE30E944424980102
:102410004C815B810E9415264B015C016801EC80B8
:10242000FB8083015C824B8205CF6F927F928F92FB
:102430009F92AF92BF92CF92DF92EF92FF920F9353
:102440001F93CF93DF93CDB7DEB72C970FB6F894D9
:10245000DEBF0FBECDBF3C01C982DA82EB82FC82B7
:102460000D831E832F83388749875A876B877C8724
:1024700020E030E048EC52E4C501B4010E94B624EB
:102480009B01AC0169857A858B859C850E94152608
:1024900069877A878B879C87CE0101960E940410FA
:1024A00050E040E0D30113962D913C9114974217D0
:1024B000530738F59A01220F331F5796ED91FC917F
:1024C0005897E20FF31F20813181F901EE0FFF1FB2
:1024D0002E0F3F1F5596ED91FC915697E20FF31F7B
:1024E00060835596ED91FC915697E20FF31F71832F
:1024F0005596ED91FC91E20FF31F82834F5F5F4F82
:10250000D1CF2C960FB6F894DEBF0FBECDBFDF91B2
:10251000CF911F910F91FF90EF90DF90CF90BF90E0
:10252000AF909F908F907F906F9008956F927F9261
:102530008F929F92AF92BF92CF92DF92EF92FF92D3
:102540000F931F93CF93DF93CDB7DEB72C970FB6C2
:10255000F894DEBF0FBECDBF4C013B01A982BA8209
:10256000CB82DC82ED82FE820F83188729873A872F
:102570004B875C87CE0101960E940410660C771C85
:10258000D4015796ED91FC915897E60DF71D4081C7
:1025900051819A01220F331F240F351F5596ED915B
:1025A000FC915697E20FF31F60835596ED91FC91D5
:1025B0005697E20FF31F718355964D915C91240F4E
:1025C000351FF90182832C960FB6F894DEBF0FBE3B
:1025D000CDBFDF91CF911F910F91FF90EF90DF90D2
:1025E000CF90BF90AF909F908F907F906F90089505
:1025F000FC0101900020E9F73197AF01481B590B0E
:10260000BC018AE195E00C94D3008F929F92AF9227
:10261000BF920F931F93CF93DF93CDB7DEB7A197F0
:102620000FB6F894DEBF0FBECDBF19A2423008F43A
:102630004AE08E010F5D1F4F842E912CB12CA12CEE
:10264000A50194010E942028E62FB901CA01EA30B1
:10265000F4F4E05DD801EE938D01232B242B252B80
:1026600079F790E080E0109719F0CD010E94F81200
:10267000A1960FB6F894DEBF0FBECDBFDF91CF910C
:102680001F910F91BF90AF909F908F900895E95C3C
:10269000E1CFBC01990F880B990B4AE00C9405130C
:1026A0000C94F8124F925F926F927F928F929F924A
:1026B000AF92BF92CF92DF92EF92FF920F931F9350
:1026C000CF936B017C01742EAC019B010E94D2263A
:1026D000882399F08BE891E0CF911F910F91FF90A3
:1026E000EF90DF90CF90BF90AF909F908F907F90B2
:1026F0006F905F904F900C94F81246015701E89448
:10270000B7F82FEF3FEF4FE75FE7C501B4010E9435
:10271000D22681110DC02FEF3FEF4FE75FE7C501D4
:10272000B4010E94B12418161CF48FE891E0D4CFB4
:102730002FEF3FEF4FE75FE4C701B6010E9410267D
:1027400018161CF483E991E0C7CF2FEF3FEF4FE756
:102750005FECC701B6010E94B12487FDF3CF20E0F2
:1027600030E0A901C701B6010E94B12410E000E0E9
:1027700087FF0AC06DE28AE195E00E9473018C0137
:10278000F7FAF094F7F8F094C0E060E070E080E0D1
:102790009FE37C1641F020E030E040E251E40E94EB
:1027A000B624CF5FF6CFA70196010E9445242B01E6
:1027B0003C010E942F254B015C014AE00E94051359
:1027C0007C01E00EF11ECC23C1F1C501B4010E94D1
:1027D0005E259B01AC01C301B2010E9444244B0160
:1027E0005C016EE28AE195E00E947301E80EF91E39
:1027F000C15018F120E030E040E251E4C501B401DD
:102800000E9415262B013C010E942F254B01B12C63
:10281000A12C4AE0C501B4010E940513E80EF91E7F
:10282000C501B4010E945E259B01AC01C301B20148
:102830000E9444244B015C01DBCFC701CF911F9163
:102840000F91FF90EF90DF90CF90BF90AF909F904F
:102850008F907F906F905F904F9008950C945213DB
:10286000CF93DF930E945213EC0187E991E00E941D
:10287000F8128C0F9D1FDF91CF910895CF93DF93B6
:102880000E94F812EC0187E991E00E94F8128C0F87
:102890009D1FDF91CF910895CF93DF93EB010E94AD
:1028A0002E248883CE01DF91CF910895CF93DF93BB
:1028B000EB010E942E248883CE01DF91CF910895F1
:1028C000CF92DF92EF92FF920F931F93CF93DF93FC
:1028D000EB017B0124E0E20EF11C8B016C01C61AB6
:1028E000D70AC601800F911F0E942E24F801819300
:1028F0008F01EE15FF05A9F7CE01DF91CF911F9152
:102900000F91FF90EF90DF90CF900895CF93DF93DA
:10291000EC0160ED75E00E94601460EF75E0CE019F
:1029200004960E94561464ED75E0CE0105960E944F
:10293000601468ED75E0CE0109960E9460146CED9C
:1029400075E0CE010D960E94601460EE75E0CE0138
:1029500041960E94601464EE75E0CE0145960E9497
:10296000601468EE75E0CE0149960E94601468EF2D
:1029700072E0CE014D960E944C1463EF72E0CE01DE
:102980004E960E944C146EEE72E0CE014F960E945D
:102990004C1469EE72E0CE0180960E944C1461EFF7
:1029A00075E0CE0181960E94601465EF75E0CE015E
:1029B00085960E94601469EF75E0CE0189960E94A9
:1029C00060146DEF75E0CE018D960E9460146BEC83
:1029D00075E0CE01C196DF91CF910C9456142091F1
:1029E0000A0330E0F901E25FFB4F8081245F3C4F36
:1029F000F901208190E09595879595958795F0E46C
:102A00002F9F90011124822B932B969587958F777A
:102A100099278530910540F401969695982F88273F
:102A2000979587950C9486140895CF92DF92EF9234
:102A3000FF928530910568F084509E4F9695982FAF
:102A4000882797958795FF90EF90DF90CF900C9413
:102A5000861440E050E064EB73E44093E00550934B
:102A6000E1056093E2057093E3051092E40510928E
:102A7000E5051092E6051092E7051092E805109220
:102A8000E9051092EA051092EB051092F8021092F7
:102A9000F30221E02093EE021092E90240E050E0C0
:102AA00060E87FE34093F1055093F2056093F305EE
:102AB0007093F4051092F5051092F6051092F70543
:102AC0001092F805C12CD12CE12C3FE3F32EC092DB
:102AD000F905D092FA05E092FB05F092FC054093CF
:102AE000FD055093FE056093FF05709300068093EB
:102AF000CB05009769F44093F9055093FA0560936C
:102B0000FB057093FC05FF90EF90DF90CF90089548
:102B10008130910569F480E090E0A0EAB0E4809310
:102B2000FD059093FE05A093FF05B0930006EBCF43
:102B30008230910529F48DEC9CECACE4BFE3EFCF3F
:102B40008330910559F4C092FD05D092FE05E092C4
:102B5000FF05F09200062093E902D5CF049799F67D
:102B600080E090E0A0E0B0E48093FD059093FE0546
:102B7000A093FF05B0930006EECFFF920F931F9333
:102B8000CF93DF93109204031092D0051092D105D9
:102B90001092D2051092D305FF24F394F092F00521
:102BA0001092D4051092D5051092D6051092D70533
:102BB00080E090E0A8ECB2E48093D8059093D9052A
:102BC000A093DA05B093DB058093DC059093DD05D7
:102BD000A093DE05B093DF0510920203109201036B
:102BE0001092030300910A0310E0F801E25FFB4F2B
:102BF000C081F801E45FFC4F8081D0E0D595C79596
:102C0000D595C79520E4829FC0011124C82BD92BEC
:102C1000D595C795CF77DD27CE010E941515C093B6
:102C2000FD02D093FF02C093FE0298012F5F3F4F39
:102C3000F901E25FFB4F8081245F3C4FF901208165
:102C400090E09595879595958795F0E42F9F900155
:102C50001124822B932B969587958F7799278093B4
:102C60000003C81788F1109203030E5F1F4FF8018D
:102C7000E25FFB4F2081045F1C4FF801808130E050
:102C80003595279535952795F0E48F9FC001112440
:102C9000282B392B369527952F773327211531058A
:102CA000B1F481E792E0909319058093180587EBC2
:102CB00095E00E94110E81E080930403DF91CF9193
:102CC0001F910F91FF900895F0920303CECF41E73B
:102CD00052E0249FC001259F900D349F900D112438
:102CE0006AE070E00E940C28709319056093180543
:102CF000DECFFF920F931F93CF93DF93EC01F62E5D
:102D000008811981C8010E942E24F81621F06F2D28
:102D1000C8010E943624CE01DF91CF911F910F91FF
:102D2000FF9008950F931F93CF93DF9300D0CDB7FB
:102D3000DEB783E190E09A83898308E115E0F8012A
:102D40006081CE0101960E94791684E190E09A8319
:102D50008983F8016181CE0101960E947916C8012C
:102D60000F900F90DF91CF911F910F9108950F93C6
:102D70001F93CF93DF9300D0CDB7DEB78B019A833B
:102D80008983FB016081CE0101960E947916C801FA
:102D90000F900F90DF91CF911F910F910895209187
:102DA0000A0330E0F901E25FFB4F8081245F3C4F72
:102DB000F901208190E09595879595958795F0E4A8
:102DC0002F9F90011124822B932B969587958F77B7
:102DD0009927892B61F48AE991E00E943E141092B0
:102DE000090369E073E080E190E00C94B7168EEA85
:102DF00091E00E943E1481E080930903F2CF0F938B
:102E00001F93CF93DF9300D0CDB7DEB78B019A83AA
:102E10008983FB016081CE0101960E947916C80169
:102E20000F900F90DF91CF911F910F91089564E063
:102E300073E081E190E00E94B71663E073E082E105
:102E400090E00E94B7160E9492166DEF72E085E145
:102E500090E00E94FF1660E073E086E190E00E943F
:102E6000FF1669E073E087E190E00C94B716AF922B
:102E7000BF92CF92DF92EF92FF920F931F93CF9367
:102E8000DF9300D0CDB7DEB78B016B0124E0C20E1B
:102E9000D11C7B015C01A61AB70AC5018E0D9F1DCE
:102EA0009A838983F70161917F01CE0101960E9487
:102EB0007916EC14FD0489F7C8010F900F90DF918B
:102EC000CF911F910F91FF90EF90DF90CF90BF9027
:102ED000AF900895CF93DF93EC0160ED75E00E9411
:102EE000371760EF75E0CE0104960E94FF1664ED7F
:102EF00075E0CE0105960E94371768ED75E0CE01AA
:102F000009960E9437176CED75E0CE010D960E9470
:102F1000371760EE75E0CE0141960E94371764EED8
:102F200075E0CE0145960E94371768EE75E0CE0138
:102F300049960E94371768EF72E0CE014D960E94C5
:102F4000B71663EF72E0CE014E960E94B7166EEE92
:102F500072E0CE014F960E94B71669EE72E0CE0184
:102F600080960E94B71661EF75E0CE0181960E94AF
:102F7000371765EF75E0CE0185960E94371769EF28
:102F800075E0CE0189960E9437176DEF75E0CE018E
:102F90008D960E9437176BEC75E0CE01C196DF91DC
:102FA000CF910C94FF1620910A0330E0F901E25F03
:102FB000FB4F8081245F3C4FF901208190E0959583
:102FC000879595958795F0E42F9F90011124822B8A
:102FD000932B969587958F7799278530910540F4A7
:102FE00001969695982F8827979587950C946A1740
:102FF000089581EC91E00E943E146AE590E080E043
:103000000E94362469E073E080E190E00E94B716E8
:1030100064E073E081E190E00E94B71663E073E042
:1030200082E190E00E94B7160E9492166DEF72E066
:1030300085E190E00E94FF1660E073E086E190E099
:103040000E94FF1680E890E00E946A1780E091E0FD
:103050000E946A1780E891E00E946A1780E092E07F
:103060000E946A1780E892E00C946A170E94560545
:103070000C94F9178F929F92AF92BF92CF92DF92EA
:10308000FF920F931F93CF93DF93C0910A03D0E079
:10309000CE010E94E105F82ECE0102960E94E105C4
:1030A0006C01CE0104960E94E1058C01CE010696CA
:1030B0000E94E105EC01B60184E0759567958A955B
:1030C000E1F76F70772770E090E080E00E945E2566
:1030D00020E030E543EC57E40E9415264B015C01EB
:1030E0006C2D6F7070E090E080E00E945E2520E023
:1030F00030E44CE156E40E9415269B01AC01C50169
:10310000B4010E9445244B015C01B80194E075951F
:1031100067959A95E1F76F70772770E090E080E00F
:103120000E945E2520E030E04AE754E40E94152624
:103130009B01AC01C501B4010E9445244B015C0117
:103140000F70602F70E090E080E00E945E2520E02C
:1031500030E048EC52E40E9415269B01AC01C50109
:10316000B4010E9445244B015C01BE0124E0759529
:1031700067952A95E1F76F70772770E090E080E01F
:103180000E945E2520E030E040E251E40E941526D6
:103190009B01AC01C501B4010E9445244B015C01B7
:1031A000CF706C2F70E090E080E00E945E259B0164
:1031B000AC01C501B4010E9445244B015C016F2D97
:1031C0006F7770E090E080E00E94602520E030E0C2
:1031D0004CE852E40E9444249B01AC0160E070E0A2
:1031E00080E291E40E9482269B01AC01C501B401FA
:1031F0000E941526F7FC9058DF91CF911F910F91F7
:10320000FF90DF90CF90BF90AF909F908F900895E8
:10321000CF92DF92EF92FF920E943A186B017C01ED
:1032200020E030E048EC52E40E94102687FF17C0EF
:1032300020E030E048EC52ECC701B6010E94B12416
:10324000181634F0C12CD12C98ECE92E92ECF92E02
:10325000C701B601FF90EF90DF90CF900895C12C89
:10326000D12C88ECE82E82E4F82EF2CF0E940819C7
:103270006093FD057093FE058093FF059093000613
:1032800008950E9408196093F9057093FA058093D8
:10329000FB059093FC0508950E9408196093F505BD
:1032A0007093F6058093F7059093F80508950E94B2
:1032B00008196093EC057093ED058093EE059093EB
:1032C000EF0508950E9408196093E8057093E905D9
:1032D0008093EA059093EB0508950E940819609386
:1032E000E4057093E5058093E6059093E70508955E
:1032F0000E9408196093DC057093DD058093DE055C
:103300009093DF0508950E9408196093D805709383
:10331000D9058093DA059093DB050895CF92DF926B
:10332000EF92FF920E943A186B017C0120E030E09E
:1033300044EB53E40E94102687FF17C020E030E0E2
:1033400044EB53ECC701B6010E94B124181634F0C7
:10335000C12CD12C94EBE92E93ECF92EC701B601C8
:10336000FF90EF90DF90CF900895C12CD12C84EB8B
:10337000E82E83E4F82EF2CFCF92DF92EF92FF9205
:103380000E948E196B017C0180910903882309F446
:1033900034C142E050E0C701B6010E942E1480ED16
:1033A00091E00E9450136091D4057091D5058091F1
:1033B000D6059091D70548E050E00E942E1480ED8C
:1033C00091E00E9450136091D8057091D9058091C9
:1033D000DA059091DB0548E050E00E942E1480ED64
:1033E00091E00E9450136091DC057091DD058091A1
:1033F000DE059091DF0548E050E00E942E1480ED3C
:1034000091E00E9450136091D0057091D105809198
:10341000D2059091D30548E050E00E942E1480ED33
:1034200091E00E9450136091CB0570E090E080E045
:103430004AE00E94051380ED91E00E9450136091D4
:10344000E0057091E1058091E2059091E30548E087
:1034500050E00E942E1480ED91E00E945013609184
:10346000E4057091E5058091E6059091E70548E057
:1034700050E00E942E1480ED91E00E945013609164
:10348000E8057091E9058091EA059091EB0548E027
:1034900050E00E942E1480ED91E00E945013609144
:1034A000F00570E090E080E048E00E94051380EDB8
:1034B00091E00E9450136091EC057091ED058091B0
:1034C000EE059091EF0548E050E00E942E1480ED4B
:1034D00091E00E9450138091F80290E00E944913FD
:1034E00080ED91E00E9450136091F1057091F2051A
:1034F0008091F3059091F40542E050E00E942E1473
:1035000080ED91E00E9450138091F30290E00E94C0
:10351000491380ED91E00E9450136091F505709180
:10352000F6058091F7059091F80542E050E00E9481
:103530002E1480ED91E00E9450138091EE0290E0F5
:103540000E94491380ED91E00E9450136091F905AB
:103550007091FA058091FB059091FC0542E050E0E6
:103560000E942E1480ED91E00E9450138091E90298
:1035700090E00E94491380ED91E00E945013609109
:10358000FD057091FE058091FF059091000642E0D7
:1035900050E00E942E1480ED91E00E945013809123
:1035A000040390E00E94491380ED91E00E945013C3
:1035B0008091030390E00E94491380ED91E00E9406
:1035C00050136091FD0270E090E080E04AE00E94BC
:1035D000051380ED91E00E9450136091000370E0AC
:1035E00090E080E04AE00E94051380ED91E0FF90BA
:1035F000EF90DF90CF900C943E1483ED91E00E9409
:10360000501342E050E0C701B6010E94301480918F
:103610000903882309F4B8C08AED91E00E94501391
:103620006091F1057091F2058091F3059091F40598
:1036300046E050E00E942E1489EF91E00E94501362
:103640006091F5057091F6058091F7059091F80568
:1036500046E050E00E942E1481E092E00E94501358
:103660006091F9057091FA058091FB059091FC0538
:1036700046E050E00E942E1489E092E00E94501330
:103680006091FD057091FE058091FF059091000607
:1036900046E050E00E94301481E192E00E94501315
:1036A0006091D4057091D5058091D6059091D7058C
:1036B00046E050E00E942E1489EF91E00E945013E2
:1036C0006091D8057091D9058091DA059091DB055C
:1036D00046E050E00E942E1481E092E00E945013D8
:1036E0006091DC057091DD058091DE059091DF052C
:1036F00046E050E00E942E1489E092E00E945013B0
:103700006091D0057091D1058091D2059091D3053B
:1037100046E050E00E9430148CE192E00E94501389
:103720006091E0057091E1058091E2059091E305DB
:1037300046E050E00E942E1489EF91E00E94501361
:103740006091E4057091E5058091E6059091E705AB
:1037500046E050E00E942E1481E092E00E94501357
:103760006091E8057091E9058091EA059091EB057B
:1037700046E050E00E942E1489E092E0FF90EF9026
:10378000DF90CF900C945013FF90EF90DF90CF908C
:1037900008950E948E196093F1057093F20580934D
:1037A000F3059093F40580E090E0A0E8BFE38093F8
:1037B000F9029093FA02A093FB02B093FC0280936B
:1037C000F4029093F502A093F602B093F70280936F
:1037D000EF029093F002A093F102B093F202809373
:1037E000EA029093EB02A093EC02B093ED020895ED
:1037F0000E948E196093E0057093E1058093E205C5
:103800009093E30508950E948E196093D4057093F8
:10381000D5058093D6059093D70508951F920F92F2
:103820000FB60F9211242F933F934F935F936F9393
:103830007F938F939F93AF93BF93EF93FF938AE10F
:1038400095E00E945101FF91EF91BF91AF919F913F
:103850008F917F916F915F914F913F912F910F9039
:103860000FBE0F901F9018951F920F920FB60F92D8
:1038700011242F938F939F93EF93FF93E0912A0549
:10388000F0912B058081E0913005F091310582FDAA
:103890001BC09081809133058F5F8F732091340519
:1038A000821741F0E0913305F0E0E65EFA4F958F24
:1038B00080933305FF91EF919F918F912F910F90FE
:1038C0000FBE0F901F9018958081F4CF1F920F921A
:1038D0000FB60F9211242F933F938F939F93AF9323
:1038E000BF938091C8029091C902A091CA02B09181
:1038F000CB023091C70223E0230F2D3758F50196F4
:10390000A11DB11D2093C7028093C8029093C902E4
:10391000A093CA02B093CB028091C3029091C402DB
:10392000A091C502B091C6020196A11DB11D809360
:10393000C3029093C402A093C502B093C602BF9184
:10394000AF919F918F913F912F910F900FBE0F904C
:103950001F90189526E8230F0296A11DB11DD2CF06
:103960001F920F920FB60F9211242F933F934F93F4
:103970005F936F937F938F939F93AF93BF93EF93D7
:10398000FF938091D2029091D3028093B2008091F4
:10399000D5029091D602A091D702B091D80201969B
:1039A000A11DB11D8093D5029093D602A093D7029A
:1039B000B093D8028091D5029091D602A091D702FF
:1039C000B091D8024091CE025091CF026091D002C6
:1039D0007091D10284179507A607B70710F180915F
:1039E000D40281111EC081E08093D4028091D5025F
:1039F0009091D602A091D702B091D802841B950B6A
:103A0000A60BB70B8093D5029093D602A093D70252
:103A1000B093D802E091CC02F091CD0209951092BA
:103A2000D402FF91EF91BF91AF919F918F917F91C0
:103A30006F915F914F913F912F910F900FBE0F901B
:103A40001F9018951F920F920FB60F9211248F930B
:103A5000EF93FF93E0911705F0E083B1E45FFC4F33
:103A60008083E0911705F0E089B1E25FFB4F80832E
:103A7000809117058F5F80931705FF91EF918F91CC
:103A80000F900FBE0F901F901895CF93DF93109259
:103A90001D0510921C0588EE93E0A0E0B0E0809335
:103AA0001E0590931F05A0932005B093210587E67E
:103AB00091E090931B0580931A0585EC90E090931C
:103AC00027058093260584EC90E090932905809348
:103AD000280580EC90E090932B0580932A0581ECDB
:103AE00090E090932D0580932C0582EC90E09093CC
:103AF0002F0580932E0586EC90E0909331058093FE
:103B0000300510923305109234051092350510924D
:103B1000360589E791E09093B8058093B70581E079
:103B20008093B9051092BC051092BD051092BE0598
:103B30001092BF051092C0058093CB051092D0055E
:103B40001092D1051092D2051092D3051092D4058F
:103B50001092D5051092D6051092D7051092D8056F
:103B60001092D9051092DA051092DB051092DC054F
:103B70001092DD051092DE051092DF051092E0052F
:103B80001092E1051092E2051092E3051092E4050F
:103B90001092E5051092E6051092E7051092E805EF
:103BA0001092E9051092EA051092EB0540E050E012
:103BB00068EC72E44093EC055093ED056093EE05DC
:103BC0007093EF058093F0051092F1051092F205C5
:103BD0001092F3051092F4051092F5051092F60577
:103BE0001092F7051092F8051092F9051092FA0557
:103BF0001092FB051092FC051092FD051092FE0537
:103C00001092FF0510920006109201061092020613
:103C1000109203061092040681E2809305068AE062
:103C200090E09093C2058093C1051092C405109254
:103C3000C3051092C6051092C5051092C8051092D2
:103C4000C7051092CA051092C9059093BB058093D1
:103C5000BA058EE190E00E9448289093CD058093AC
:103C6000CC0590E080E0C091BA05D091BB059E01E3
:103C7000220F331FA9014C0F5D1F8417950748F4CD
:103C8000E091CC05F091CD05E80FF91F1082019667
:103C9000EACFC11580E4D80788F4C9010E944828FA
:103CA0008093CE059093CF05FC0190E080E0C8178B
:103CB000D90739F0819391930196F9CF8FEF9FEF58
:103CC000EDCF61E087EB95E00E94B20F81E0809339
:103CD000C005DF91CF910895CF93DF93CDB7DEB7C5
:103CE000EC970FB6F894DEBF0FBECDBF789484B5C5
:103CF000826084BD84B5816084BD85B5826085BDE8
:103D000085B5816085BD80916E00816080936E0075
:103D10001092810080918100826080938100809167
:103D20008100816080938100809180008160809318
:103D300080008091B10084608093B1008091B000D8
:103D400081608093B00080917A00846080937A00D3
:103D500080917A00826080937A0080917A008160FD
:103D600080937A0080917A00806880937A00109224
:103D7000C10061E080E10E94E00161E08FE00E940B
:103D8000E00161E08EE00E94E00160E082E00E94DC
:103D9000E00160E083E00E94E00160E084E00E94D6
:103DA000E00160E085E00E94E00160E086E00E94C2
:103DB000E00160E087E00E94E00160E088E00E94AE
:103DC000E00160E089E00E94E00180916900836089
:103DD00080936900E89A10921705109214051092CA
:103DE000130510921605109210051092150580E12A
:103DF00090E0A0E0B0E08093CE029093CF02A09339
:103E0000D002B093D1028FEB90E09093CD028093DB
:103E1000CC02809170008E7F809370008091B00002
:103E20008C7F8093B0008091B100877F8093B10038
:103E30008091B6008F7D8093B600809170008D7F59
:103E4000809370008091B10084608093B100809174
:103E5000B1008C7F8093B10086E090E09093D30214
:103E60008093D2021092D5021092D6021092D702FD
:103E70001092D8021092D4028091D2029091D30273
:103E80008093B2008091700081608093700078947C
:103E9000E0912A05F0912B0582E08083E0912605D0
:103EA000F09127051082E0912805F091290580E125
:103EB000808310923205E0912E05F0912F0586E067
:103EC0008083E0912C05F0912D05808180618083B5
:103ED000E0912C05F0912D05808188608083E09130
:103EE0002C05F0912D05808180688083E0912C0560
:103EF000F0912D0580818F7D80838EE292E00E947B
:103F00003E1484E492E00E943E141092CB0510927D
:103F1000DC051092DD051092DE051092DF0587EBBF
:103F200095E00E94110E80E090E0A4EBB3E4809352
:103F3000E5029093E602A093E702B093E80280E0E6
:103F400090E0A8ECB2E48093E1029093E202A093A7
:103F5000E302B093E4021092DD021092DE021092AE
:103F6000DF021092E0021092D9021092DA0210924F
:103F7000DB021092DC02F8941092080310920703FF
:103F800010920203109201031092FF021092FE029F
:103F90000E94560590E080E00E942E248A3511F0A0
:103FA0000E94F91769E073E080E190E00E944C14F0
:103FB00064E073E081E190E00E944C1463E073E000
:103FC00082E190E00E944C1483E190E00E942E2454
:103FD0008093180584E190E00E942E2480931905B7
:103FE0006DEF72E085E190E00E94561460E073E0AE
:103FF00086E190E00E9456148091FD0290E00196C7
:104000009695982F8827979587950E94861478947F
:1040100080910403882369F088E692E00E943E14B0
:104020008091FD0290E00E94151587EB95E00E94BB
:10403000110E80910903882321F08EEA91E00E94FD
:104040003E1487E991E00E94F812CE0101961C010E
:1040500001E0C12CD12CF0E8EF2EFFE3FF2E789485
:1040600080911705609116058617E1F100931505FB
:104070006F5F609316058091130590911405069665
:1040800020911105309112058217930720F41092A8
:1040900014051092130520911305309114052A5F21
:1040A0003F4F309312052093110580911005811127
:1040B00071C26150770BFB01E25FFB4F8081645F4F
:1040C0007C4FDB012C9190E0959587959595879590
:1040D000B0E42B9F90011124822B833409F0C8C2D5
:1040E00000931005809115058111D6C280910703B8
:1040F00090910803209105033091060382179307DE
:1041000009F43BC2019690930803809307038091C2
:104110000403882309F431C2809117058A3A08F014
:104120002CC280910303882389F080910103909130
:10413000020320911805309119058217930709F49D
:10414000CBC2019690930203809301038090F10506
:104150009090F205A090F305B090F4052091F9023B
:104160003091FA024091FB025091FC02C501B4016A
:104170000E9415262091D4053091D5054091D60591
:104180005091D7050E9445242B013C014092D40553
:104190005092D5056092D6057092D70520E030E0A8
:1041A00044EB53E40E941026181624F58091F8027F
:1041B000882309F4AEC280E090E0A0E8BFEB8093D2
:1041C000F9029093FA02A093FB02B093FC02C5019E
:1041D000B40190589B01AC010E944524A3019201B7
:1041E0000E9445246093D4057093D5058093D6052D
:1041F0009093D7054090D4055090D5056090D60592
:104200007090D70520E030E0A901C301B2010E94FF
:10421000B12487FF1FC08091F802C092F902D092AA
:10422000FA02E092FB02F092FC02882309F482C2B7
:10423000A5019401C501B4010E944524A301920186
:104240000E9445246093D4057093D5058093D605CC
:104250009093D7054090F5055090F6056090F705CE
:104260007090F8052091F4023091F5024091F60229
:104270005091F702C301B2010E9415262091D80582
:104280003091D9054091DA055091DB050E94452413
:104290004B015C018092D8059092D905A092DA0575
:1042A000B092DB051091F302112309F44AC22DE705
:1042B0003FEF47EC52E40E9410261816FCF480E011
:1042C00090E0A0E8BFEB8093F4029093F502A093F6
:1042D000F602B093F702C301B20190589B01AC0102
:1042E0000E944524A50194010E9445246093D805AD
:1042F0007093D9058093DA059093DB058090D805FB
:104300009090D905A090DA05B090DB0520E030E070
:10431000A901C501B4010E94B12487FF22C0C09247
:10432000F402D092F502E092F602F092F70220E059
:1043300030E048EC52E4C501B401112341F0A3017F
:104340009201C301B2010E944524A50194010E947B
:1043500045246093D8057093D9058093DA0590932E
:10436000DB054090F9055090FA056090FB057090D0
:10437000FC052091EF023091F0024091F102509142
:10438000F202C301B2010E9415262091DC05309192
:10439000DD054091DE055091DF050E9445244B016B
:1043A0005C018092DC059092DD05A092DE05B09262
:1043B000DF051091EE02112309F4DDC12DE73FEF77
:1043C00047EC52E40E9410261816FCF480E090E0BE
:1043D000A0E8BFEB8093EF029093F002A093F1026C
:1043E000B093F202C301B20190589B01AC010E944C
:1043F0004524A50194010E9445246093DC05709337
:10440000DD058093DE059093DF058090DC059090BC
:10441000DD05A090DE05B090DF0520E030E0A901C9
:10442000C501B4010E94B12487FF22C0C092EF02EF
:10443000D092F002E092F102F092F20220E030E03D
:1044400048EC52E4C501B401112341F0A3019201EB
:10445000C301B2010E944524A50194010E94452494
:104460006093DC057093DD058093DE059093DF0596
:104470004090FD055090FE056090FF05709000068D
:104480002091EA023091EB024091EC025091ED0252
:10449000C301B2010E9415262091D0053091D105AB
:1044A0004091D2055091D3050E9445244B015C01F7
:1044B0008092D0059092D105A092D205B092D305FA
:1044C0008091E902882309F470C12DE73FEF47ECA2
:1044D00052E4C501B4010E9410261816FCF480E0D5
:1044E00090E0A0E8BFEB8093EA029093EB02A093E8
:1044F000EC02B093ED02C301B20190589B01AC01F4
:104500000E944524A50194010E9445246093D00592
:104510007093D1058093D2059093D3058090D005F8
:104520009090D105A090D205B090D30520E030E066
:10453000A901C501B4010E94B12487FF1AC0C0922D
:10454000EA02D092EB02E092EC02F092ED02A301BB
:104550009201C301B2010E944524A50194010E9469
:1045600045246093D0057093D1058093D205909334
:10457000D30587EB95E00E94110EA0E0B0E0AB2BD5
:1045800009F46DCD0E943D01882309F468CD0E9495
:10459000000065CD813009F06EC0862F8150990BE7
:1045A000FC01DC01A25FBB4F8C91E45FFC4F4081BA
:1045B00090E0959587959595879570E4479FA00124
:1045C0001124842B952B959587958F7799274F9755
:1045D000E4F48C9120818695869590E4299F900142
:1045E0001124822B90E09595879580930B0360931F
:1045F0000A03A2E0A09310058C5B9E4FFC01808112
:1046000081114AC00E9429066DCD8091090388233B
:1046100079F18091130590911405709117054C91D3
:1046200050819F938F933F932F931F926F931F926D
:104630007F93842F90E09595879595958795F0E4E5
:104640005F9F90011124822B932B99279F938F9327
:1046500085E792E09F938F933F922F920E946D295E
:10466000C1010E943E140FB6F894DEBF0FBECDBF4D
:104670000E94180637CD823031F5E0910B03F0E04F
:10468000EC5BFE4F808190910A03890F9927991F57
:104690006817190609F4B6CF809113059091140597
:1046A00020911105309112052817390708F01ECD09
:1046B00080910903882321F084EB92E00E943E144C
:1046C0000E94180613CD80910903882389F285EA98
:1046D00092E00E943E14CCCF10920203109201038C
:1046E0008091FE029091FF02209100032817190685
:1046F00071F48091FD0290E09093FF028093FE029E
:104700008091FE029091FF020E9415151FCD019627
:10471000F3CFC092F902D092FA02E092FB02F0923B
:10472000FC0220E030E044EB53E4C301B2010E94FC
:10473000442458CD20E030E044EB53E4C301B201FF
:104740007FCD20E030E048EC52E40E94102618169D
:104750000CF0D4CDC092F402D092F502E092F602B1
:10476000F092F70220E030E048EC52E4C501B401D9
:104770000E944424BBCD20E030E048EC52E40E948B
:10478000102618160CF041CEC092EF02D092F00223
:10479000E092F102F092F20220E030E048EC52E4C4
:1047A000C501B4010E94442428CE20E030E048EC4A
:1047B00052E4C501B4010E9410261816C4F4C09238
:1047C000EA02D092EB02E092EC02F092ED0220E0DD
:1047D00030E048EC52E4C501B4010E9444246093E7
:1047E000D0057093D1058093D2059093D305809026
:1047F000D0059090D105A090D205B090D30520E0CF
:1048000030E0A901C501B4010E94B12487FFB1CEF7
:10481000C092EA02D092EB02E092EC02F092ED023A
:1048200020E030E048EC52E4C501B40198CE89E7BD
:1048300091E09093B8058093B7058091CC05909155
:10484000CD05009711F00E94E4288091CE0590914B
:10485000CF05009711F00C94E4280895F999FECF44
:1048600092BD81BDF89A992780B50895262FF999B0
:10487000FECF1FBA92BD81BD20BD0FB6F894FA9A43
:10488000F99A0FBE019608955058BB27AA270E9497
:104890005C240C94D6250E94C82538F00E94CF25B0
:1048A00020F039F49F3F19F426F40C94C5250EF43A
:1048B000E095E7FB0C94BF25E92F0E94E72558F30C
:1048C000BA17620773078407950720F079F4A6F5F5
:1048D0000C9409260EF4E0950B2EBA2FA02D0B0197
:1048E000B90190010C01CA01A0011124FF27591B35
:1048F00099F0593F50F4503E68F11A16F040A22F3B
:10490000232F342F4427585FF3CF469537952795AB
:10491000A795F0405395C9F77EF41F16BA0B620BAA
:10492000730B840BBAF09150A1F0FF0FBB1F661FF1
:10493000771F881FC2F70EC0BA0F621F731F841F34
:1049400048F4879577956795B795F7959E3F08F05A
:10495000B0CF9395880F08F09927EE0F979587951C
:1049600008950E949B2508F481E008950E94CA24BE
:104970000C94D6250E94CF2558F00E94C82540F0FF
:1049800029F45F3F29F00C94BF2551110C940A269D
:104990000C94C5250E94E72568F39923B1F35523AC
:1049A00091F3951B550BBB27AA2762177307840742
:1049B00038F09F5F5F4F220F331F441FAA1FA9F3D8
:1049C00035D00E2E3AF0E0E832D091505040E695C6
:1049D000001CCAF72BD0FE2F29D0660F771F881F27
:1049E000BB1F261737074807AB07B0E809F0BB0B1A
:1049F000802DBF01FF2793585F4F3AF09E3F51052E
:104A000078F00C94BF250C940A265F3FE4F3983E9F
:104A1000D4F3869577956795B795F7959F5FC9F716
:104A2000880F911D9695879597F90895E1E0660F97
:104A3000771F881FBB1F621773078407BA0720F010
:104A4000621B730B840BBA0BEE1F88F7E095089579
:104A50000E942F256894B1110C940A2608950E9493
:104A6000EF2588F09F5798F0B92F9927B751B0F0EC
:104A7000E1F0660F771F881F991F1AF0BA95C9F7E2
:104A800014C0B13091F00E940926B1E008950C9451
:104A90000926672F782F8827B85F39F0B93FCCF304
:104AA000869577956795B395D9F73EF4909580955F
:104AB000709561957F4F8F4F9F4F0895E89409C07F
:104AC00097FB3EF490958095709561957F4F8F4F41
:104AD0009F4F9923A9F0F92F96E9BB279395F69557
:104AE000879577956795B795F111F8CFFAF4BB0FD5
:104AF00011F460FF1BC06F5F7F4F8F4F9F4F16C039
:104B0000882311F096E911C0772321F09EE8872FC2
:104B1000762F05C0662371F096E8862F70E060E07E
:104B20002AF09A95660F771F881FDAF7880F9695F7
:104B3000879597F90895990F0008550FAA0BE0E89B
:104B4000FEEF16161706E807F907C0F0121613064F
:104B5000E407F50798F0621B730B840B950B39F48F
:104B60000A2661F0232B242B252B21F408950A26F5
:104B700009F4A140A6958FEF811D811D089597F935
:104B80009F6780E870E060E008959FEF80EC0895F3
:104B900000240A941616170618060906089500241C
:104BA0000A9412161306140605060895092E039496
:104BB000000C11F4882352F0BB0F40F4BF2B11F40A
:104BC00060FF04C06F5F7F4F8F4F9F4F089557FD69
:104BD0009058440F551F59F05F3F71F04795880F6B
:104BE00097FB991F61F09F3F79F087950895121602
:104BF00013061406551FF2CF4695F1DF08C01616AE
:104C000017061806991FF1CF86957105610508945E
:104C10000895E894BB2766277727CB0197F9089575
:104C20000E949B2508F48FEF08950E9428260C947B
:104C3000D6250E94C82538F00E94CF2520F0952364
:104C400011F00C94BF250C94C52511240C940A2650
:104C50000E94E72570F3959FC1F3950F50E0551F13
:104C6000629FF001729FBB27F00DB11D639FAA27C1
:104C7000F00DB11DAA1F649F6627B00DA11D661F10
:104C8000829F2227B00DA11D621F739FB00DA11D31
:104C9000621F839FA00D611D221F749F3327A00DEB
:104CA000611D231F849F600D211D822F762F6A2F87
:104CB00011249F5750409AF0F1F088234AF0EE0FEC
:104CC000FF1FBB1F661F771F881F91505040A9F719
:104CD0009E3F510580F00C94BF250C940A265F3F3F
:104CE000E4F3983ED4F3869577956795B795F79555
:104CF000E7959F5FC1F7FE2B880F911D96958795CD
:104D000097F90895FA01EE0FFF1F3096210531053E
:104D1000A1F16115710561F48038BFE39B0749F18A
:104D200068949038810561F08038BFEF9B0741F0AF
:104D300099234AF5FF3FE1053105210519F1E89472
:104D40000894E795D901AA2329F4AB2FBE2FF85F69
:104D5000D0F310C0FF5F70F4A695E0F7F73950F07C
:104D600019F0FF3A38F49F779F930DD00F9007FC0E
:104D70009058089546F00C94C52560E070E080E8F6
:104D80009FE308954FE79F775F934F933F932F9350
:104D90000E9482272F913F914F915F910E9415268B
:104DA0000C94DF260E949B25880B990B089529F40B
:104DB00016F00C94BF250C9409260C94C5250E946E
:104DC000EF25A8F39638A0F707F80F92E8942BE3A5
:104DD0003AEA48EB5FE70E942B260F920F920F9260
:104DE0004DB75EB70F920E94CA27E8E6F0E00E9436
:104DF00011274F915F91EF91FF91E595EE1FFF1FF6
:104E000049F0FE57E0684427EE0F441FFA95E1F79A
:104E10004195550B0E9444270F9007FE0C943827AC
:104E20000895DF93CF931F930F93FF92EF92DF923A
:104E30007B018C01689406C0DA2EEF010E942826BF
:104E4000FE01E894A5912591359145915591A6F3E0
:104E5000EF010E945C24FE019701A801DA9469F732
:104E6000DF90EF90FF900F911F91CF91DF91089508
:104E70009B01AC0160E070E080E89FE30C94B624F5
:104E80000C94BF250C94FE270E94EF25D8F399239C
:104E9000C9F3940F511DA3F39150504094F059F071
:104EA000882332F0660F771F881F91505040C1F75A
:104EB0009E3F51052CF7880F911D9695879597F980
:104EC00008955F3FACF0983E9CF0BB2786957795A0
:104ED0006795B79508F4B1609395C1F7BB0F58F784
:104EE00011F460FFE8CF6F5F7F4F8F4F9F4FE3CF8D
:104EF0000C940A2616F00C94FE270C94C525689491
:104F00000C94BF250E94EF25A8F39923C1F3AEF3BB
:104F1000DF93CF931F930F93FF92C92FDD27882331
:104F20002AF02197660F771F881FDAF720E030E01C
:104F300040E85FEB9FE3883920F0803E38F021960F
:104F40008F770E944524E0E9F0E004C00E944524E8
:104F5000EDEBF0E00E9411278B01BE01EC01FB2E6E
:104F60006F5771097595771F880B990B0E94602503
:104F700028E132E741E35FE30E942826AF2D980144
:104F8000AE01FF900F911F91CF91DF910E945C24A1
:104F90000C94D625FA01DC01AA0FBB1F9B01AC01C2
:104FA000BF5728F4222733274427507820C0B75111
:104FB00090F4AB2F0024469537952795011CA395B7
:104FC000D2F3002071F0220F331F441FB395DAF3A0
:104FD0000ED00C94442461307105A0E88A07B946CC
:104FE00030F49B01AC0166277727882790783096AC
:104FF00021F0208331834283538308959F3F31F012
:10500000915020F4879577956795B795880F911DF6
:105010009695879597F90895AA1BBB1B51E107C088
:10502000AA1FBB1FA617B70710F0A61BB70B881F38
:10503000991F5A95A9F780959095BC01CD010895C7
:10504000A1E21A2EAA1BBB1BFD010DC0AA1FBB1F8C
:10505000EE1FFF1FA217B307E407F50720F0A21BFE
:10506000B30BE40BF50B661F771F881F991F1A946B
:1050700069F760957095809590959B01AC01BD0195
:10508000CF010895EE0FFF1F0590F491E02D0994D4
:105090000F931F93CF93DF938230910510F482E03A
:1050A00090E0E0910806F091090630E020E0B0E0E1
:1050B000A0E0309799F42115310509F44AC0281B66
:1050C000390B24303105D8F58A819B816115710532
:1050D00089F1FB0193838283FE0111C040815181DC
:1050E0000281138148175907E0F04817590799F4CE
:1050F000109761F012960C93129713961C933296A8
:10510000CF01DF91CF911F910F9108950093080671
:1051100010930906F4CF2115310551F042175307BA
:1051200038F0A901DB019A01BD01DF01F801C1CF0F
:10513000EF01F9CF9093090680930806CDCFFE01C9
:10514000E20FF31F81939193225031093983288311
:10515000D7CF2091060630910706232B41F42091EA
:105160000201309103013093070620930606209137
:105170000001309101012115310541F42DB73EB7F1
:105180004091040150910501241B350BE091060666
:10519000F0910706E217F307A0F42E1B3F0B281728
:1051A000390778F0AC014E5F5F4F2417350748F0A0
:1051B0004E0F5F1F5093070640930606819391930D
:1051C0009FCFF0E0E0E09CCFCF93DF930097E9F032
:1051D000FC01329713821282A0910806B091090651
:1051E000ED0130E020E01097A1F420813181820FA1
:1051F000931F20910606309107062817390709F0FA
:1052000061C0F0930706E0930606DF91CF91089501
:10521000EA01CE17DF07E8F54A815B819E0141155F
:105220005105B1F7E901FB83EA8349915991C40F14
:10523000D51FEC17FD0761F4808191810296840FE0
:10524000951FE90199838883828193819B838A8357
:10525000F0E0E0E012968D919C9113970097B9F5DC
:105260002D913C911197CD010296820F931F2091B1
:105270000606309107062817390739F6309751F599
:105280001092090610920806B0930706A09306062E
:10529000BCCFD383C28340815181840F951FC8172F
:1052A000D90761F44E5F5F4F88819981480F591F7C
:1052B000518340838A819B819383828321153105A9
:1052C00009F0B0CFF0930906E09308069ECFFD01E8
:1052D000DC01C0CF13821282D7CFAEE0B0E0E3E7AB
:1052E000F9E20C941C2C0D891E8986E08C831A83AC
:1052F00009838FEF9FE79E838D83AE01475E5F4FEB
:105300006F89788DCE0101960E9490292F81388572
:10531000020F131FF80110822E96E4E00C94382C33
:10532000ABE0B0E0E6E9F9E20C940E2C7C013B0125
:105330008A01FC0117821682838181FFC8C1CE01D8
:1053400001965C01F7019381F30193FD859193FF31
:1053500081913F01882309F453C1853239F493FDCB
:10536000859193FF81913F01853229F4B70190E047
:105370000E94802BE7CF912C212C312CFFE1F315DB
:1053800038F08B3211F190F4803209F1833229F137
:1053900037FC3CC020ED280F2A3050F536FE20C0E7
:1053A0008AE0989E200D1124922E06C08D3291F035
:1053B000803371F7689430F8F30193FD859193FF82
:1053C00081913F018111DACF21C0689431F868944E
:1053D00032F8F2CF689433F8EFCF689434F8ECCF1A
:1053E000EAE02E9E200D1124222E689435F8E4CF99
:1053F0008E3229F436FC04C1689436F8DDCF8C3641
:1054000019F4689437F8D8CF8836B1F2982F9F7D79
:1054100095549330E0F08336A1F18337C1F18335A1
:1054200009F063C02801F2E04F0E511CF801C08062
:10543000D180692D70E036FC02C06FEF7FEFC601AE
:105440000E946A2B4C01689437F882010AC00C5FF5
:105450001F4FFFE3F98388248394912C6501E8941E
:1054600037F833FE2DC0522C8114910471F555206C
:1054700009F468CFB70180E290E00E94802B5A9433
:10548000F6CFF801808189830E5F1F4FE4CF28019A
:10549000F2E04F0E511CF801C080D180692D70E000
:1054A00036FC02C06FEF7FEFC6010E94752B4C01E6
:1054B0008201D5CFB70180E290E00E94802B2A9430
:1054C0002814190409F0B0F7CECFF60137FC859106
:1054D00037FE81916F01B70190E00E94802B51103F
:1054E0005A94F1E08F1A9108BFCF843619F08936AB
:1054F00009F077C0F80137FE6BC06081718182814D
:1055000093810C5F1F4FF32DFF763F2E97FF09C04D
:1055100090958095709561957F4F8F4F9F4F6894C0
:1055200037F82AE030E0A5010E94B02BC82ECA1837
:105530008C2C432C36FE0CC0E89440F8C91440F47F
:1055400034FE05C032FC03C0F32DFE7E4F2E892CA5
:1055500044FE95C0FE01EC0DF11D8081803309F001
:1055600087C0242D297E422E842D8870582E43FC1E
:1055700095C040FE8FC09C2C821418F42C0C922CE9
:10558000981844FE91C0B70180E390E00E94802B00
:1055900042FE09C088E790E041FE02C088E590E045
:1055A000B7010E94802BC91408F48AC0CA94D12C78
:1055B0009FEFC91AD90ACA0CDB1CF60182916F0150
:1055C000B70190E00E94802BAC14BD04B1F74FCF1F
:1055D00060817181072E000C880B990B0E5F1F4FA5
:1055E00092CFD32CE894D4F82AE030E0853739F113
:1055F000232D297FD22E8F3601F148F48835A9F06A
:10560000F701868197812B96E2E10C942A2C803752
:1056100049F08837A9F7D4FE02C06894D2F820E197
:1056200030E00DC06894D4F8F6CF34FE03C0822F6A
:105630008660D82E20E132E002C028E030E0F80198
:10564000D7FE0FC060817181828193810C5F1F4FF3
:10565000A5010E94B02BC82ECA183D2CE89437F83B
:1056600067CF6081718190E080E00E5F1F4FF0CFC7
:1056700042FC02C0839478CF8394839475CF842DA9
:10568000867809F471CFF6CFB70180E290E00E94EE
:10569000802B83948214C0F3512C73CF522C581852
:1056A000821408F46ECFF8CF842D867809F47BCF6E
:1056B0008BE241FE80E247FC8DE2B70190E071CFC2
:1056C000B70180E390E00E94802B9A946CCF8FEF1B
:1056D0009FEF99CFFC010590615070400110D8F701
:1056E000809590958E0F9F1F0895FC01615070402A
:1056F00001900110D8F7809590958E0F9F1F089507
:105700000F931F93CF93DF93182F092FEB018B81FA
:1057100081FD09C01FEF0FEF812F902FDF91CF91F7
:105720001F910F91089582FF14C02E813F818C81BB
:105730009D81281739073CF4E881F981CF01019652
:105740009983888310838E819F8101969F838E83A6
:10575000E3CFE885F985812F0995892BA1F3DACF6D
:10576000FA01AA27283051F1203181F1E8946F9392
:105770006E7F6E5F7F4F8F4F9F4FAF4FB1E03ED038
:10578000B4E03CD0670F781F891F9A1FA11D680FD6
:10579000791F8A1F911DA11D6A0F711D811D911D09
:1057A000A11D20D009F468943F912AE0269F11247E
:1057B0003019305D3193DEF6CF010895462F4770E2
:1057C000405D4193B3E00FD0C9F7F6CF462F4F703D
:1057D000405D4A3318F0495D31FD4052419302D09B
:1057E000A9F7EACFB4E0A695979587957795679541
:1057F000BA95C9F700976105710508959B01AC0141
:105800000A2E06945795479537952795BA95C9F767
:10581000620F731F841F951FA01D08952F923F9242
:105820004F925F926F927F928F929F92AF92BF92B0
:10583000CF92DF92EF92FF920F931F93CF93DF935C
:10584000CDB7DEB7CA1BDB0B0FB6F894DEBF0FBEB9
:10585000CDBF09942A88398848885F846E847D8406
:105860008C849B84AA84B984C884DF80EE80FD8008
:105870000C811B81AA81B981CE0FD11D0FB6F8947E
:10588000DEBF0FBECDBFED01089510E0C4E9D0E04A
:1058900004C0FE010E9442282196C539D107C9F7EC
:0458A000F894FFCFAA
:1058A40000000A068000CF165F0F5B0F2105ED0490
:1058B4003618BD15BC19C603031C83197819F81BC7
:1058C400A903F602CD02C91B4C19411936199E02CF
:1058D4006F02400211026D1962195719D317EF14A0
:1058E4001717050301000001010003080308080855
:1058F400080100000808080801010101080808015E
:10590400010001000000007301D3000001C0013157
:10591400010F01230100000000B20F9612151211AD
:105924000B5F0A34097C07110E36066E616E00693E
:105934006E66006F7666000D0A005573657220442A
:1059440065627567206D6F6465204F464600557328
:105954006572204465627567206D6F6465204F4EE3
:1059640000454550524F4D20494E49542E2E2E008D
:105974002C20007265616C3A2000636C5F615F6586
:105984006E61626C65203A0A636F6C6F7243686182
:105994006E6765206875652000207C207361742023
:1059A40000207C2076616C2000207C20706F7320A6
:1059B40000636F6C6F72206875652000636F6C6F95
:1059C400725061747465726E2068756520004D5361
:1059D400582047616D696E67204C454420537973A4
:1059E40074656D006669726D7761726520726576A3
:1059F40020312E322830322F30332F3230323329B7
:105A0400204076393933380044656D6F204D6F641A
:105A140065204F4E00574149545F434D4420556E15
:105A24006B6E6F773A20307825303278204C3A20EC
:105A3400256420483A20256420746F3A2025642088
:105A4400743A256400496E7661696C64205374610C
:105A540074757300434D442054696D65206F7574EB
:025A6400000040
:107E0000112484B714BE81FFF0D085E080938100F7
:107E100082E08093C00088E18093C10086E0809377
:107E2000C20080E18093C4008EE0C9D0259A86E02C
:107E300020E33CEF91E0309385002093840096BBD3
:107E4000B09BFECF1D9AA8958150A9F7CC24DD24C4
:107E500088248394B5E0AB2EA1E19A2EF3E0BF2EE7
:107E6000A2D0813461F49FD0082FAFD0023811F036
